:020000022000DC
:106000000000012009E0020031E002001DA20200B0
:1060100035E0020037E0020039E002000000000035
:106020000000000000000000000000003BE0020053
:106030003DE00200000000003FE0020041E00200FD
:1060400059B2020043E0020021B70200A1BA0200E7
:10605000C1B9020043E0020089B5020019B802008C
:1060600071BA020081BA020043E0020043E002007C
:1060700043E00200F9C9020043E0020043E00200ED
:1060800043E00200A19C020043E0020043E0020062
:106090003D9D020043E0020085DA020043E0020079
:1060A00043E0020043E0020043E0020043E002005C
:1060B000D1B7020043E00200000000000000000031
:1060C00043E00200E1B70200F1B7020043E0020042
:1060D00043E0020043E0020043E002000000000051
:1060E00000000000000000000000000000000000B0
:1060F00000000000000000000000000000000000A0
:10610000000000000000000000000000000000008F
:10611000000000000000000000000000000000007F
:10612000000000000000000000000000000000006F
:10613000000000000000000000000000000000005F
:10614000000000000000000000000000000000004F
:10615000000000000000000000000000000000003F
:10616000000000000000000000000000000000002F
:10617000000000000000000000000000000000001F
:10618000000000000000000000000000000000000F
:1061900000000000000000000000000000000000FF
:1061A00000000000000000000000000000000000EF
:1061B00000000000000000000000000000000000DF
:1061C00000000000000000000000000000000000CF
:1061D00000000000000000000000000000000000BF
:1061E00000000000000000000000000000000000AF
:1061F000000000000000000000000000000000009F
:1062000010B5054C237833B9044B13B10448AFF3F0
:1062100000800123237010BD7CA30020000000003B
:106220002473030008B5034B1BB103490348AFF3C4
:10623000008008BD0000000080A30020247303003C
:10624000A3F5803A704700BF174B002B08BF134BD4
:106250009D46FFF7F5FF00218B460F461348144A71
:10626000121A07F0EDFF0E4B002B00D098470D4B94
:10627000002B00D098470020002104000D000D489D
:10628000002802D00C480AF0F5F807F0EBFE2000D9
:10629000290000F039F807F0D5FE00BF0000080023
:1062A0000000000000000000000001207CA300208E
:1062B00014B90020750403003917030038B50D49DF
:1062C00000F060FD70B10C4808F00AF80B4B1B7829
:1062D0004FF0A0444FF000752BB1094808F000F8CA
:1062E000C4F80C5538BD074807F0FAFFC4F8085544
:1062F000F8E700BFE2980020D8520300E0980020A1
:10630000FA5203000B5303007FB51048104C00F005
:1063100041FC104B1860204600F084FC0E4BCDE988
:1063200002430E4B0193012100231A4608460091B7
:1063300000F09CFC0A4B059305A8042100F070FDB9
:10634000084807F0CDFF00F019FCFCE7A8980020F2
:10635000B898002060B80020E2980020E098002063
:1063600071BA9F4C1D530300F0B58688054691B065
:10637000304605F0E9FC2B88182B23D184B2022C7F
:10638000A96824D14FF6FF739E4242D0002940D025
:106390004022684607F0BAFE204840236A46694614
:1063A00000F092FD0546A0BB1D4C1C482146402331
:1063B0006A4600F065FD214630B9012384F84A3071
:1063C000A1F8486011B0F0BD84F84A50F8E7012CFC
:1063D000F8D14FF6FF739E421BD0D1B140226846E0
:1063E00007F094FE0D4840236A46694600F06CFDB4
:1063F000074670B90B4D0948294640236A4600F00C
:106400003FFD294610B985F84A40D9E785F84A701A
:10641000D6E7054B01221A70D4E700BFDC68030001
:10642000EC9800203899002098A3002038B5054D3D
:10643000044645F001054FF47A40A847013CFAD1E3
:1064400038BD00BF0054030070B5054686B00E4647
:10645000144672B604F0BCFC04F01CFB0028FBD10F
:106460003E4807F03DFF44F201039D4266D00AD842
:10647000012D12D041F201039D425DD031463848D2
:1064800007F02EFF0CE044F202039D42F6D1228871
:106490006168344807F024FF02E0334807F020FF2A
:1064A00004F07EFF08B904F043FF0023ADF8143078
:1064B0008DF8163005A9012319208DF8153004F048
:1064C00079FF05A9182004F075FF05A9172004F02D
:1064D00071FF192005F02AF8182005F027F8172079
:1064E00005F024F84FF4FA70FFF7A0FF192004F02C
:1064F000EFFF182004F0ECFF172004F0E9FF322032
:10650000FFF794FF192005F011F8182005F00EF898
:10651000172005F00BF84FF4FA70FFF787FF1920EA
:1065200004F0D6FF182004F0D3FF172004F0D0FFAA
:10653000FA20FFF77BFFCCE70C48AFE7A168039197
:10654000084604F035FE236801960093024663680E
:106550000399074807F0C4FEA2E700BF45530300B4
:10656000E25303009D5303005E5303007B5303007B
:10657000B853030007B504F013FF08B904F0D8FEC0
:106580000023ADF804308DF8063001A9012319204D
:106590008DF8053004F00EFF01A9182004F00AFF61
:1065A00001A9172004F006FF192004F0BFFF1820EE
:1065B00004F0BCFF172004F0B9FF4FF4FA70FFF7A6
:1065C00035FF192004F084FF182004F081FF172004
:1065D00004F07EFF3220FFF729FF192004F0A6FF08
:1065E000182004F0A3FF172004F0A0FF4FF4FA7066
:1065F000FFF71CFF192004F06BFF182004F068FF60
:10660000172004F065FFFA20FFF710FFCCE76CDFDE
:10661000704772DF704774DF704776DF704778DF4E
:1066200070477ADF70477CDF70477FDF704786DF17
:1066300070478ADF70478FDF7047A8DF7047AADF97
:106640007047B1DF704762DF704733DF704741DF6B
:106650007047704737B50388212B044632D80F2B7B
:1066600006D87D4B13B12046AFF3008003B030BD98
:10667000103B112BF5D801A252F823F0F966020065
:106680003D6702006366020077670200B36702009D
:1066900063660200636602006366020063660200CE
:1066A0006366020063660200CF6702006366020051
:1066B0001F680200636602006366020063660200F0
:1066C0003D6802003B2B00F08F80503B9AB2062AB7
:1066D000C7D8062BC5D801A252F823F0596702008B
:1066E0006767020097670200636602006366020044
:1066F00063660200FF670200584D81885848298070
:1067000007F06AF820B1574A4FF49D7103F075FA0B
:10671000002328881A461946FFF793FF20B1514AF3
:106720004FF4A17103F069FA4F4807F0D9FD4F4BC0
:10673000002B96D02046AFF3008092E7474B4C48A1
:106740004FF6FF721A8007F0CBFD4A4B002B88D022
:106750002046AFF3008084E7474B002B81D02046D2
:10676000FFF7ACFD7DE7454B002B3FF47AAF2046A9
:10677000AFF3008075E73948002300881A46852169
:10678000FFF753FF00283FF46CAF364A40F2811107
:1067900003F033FA65E73148002300881A461946AA
:1067A000FFF74FFF00283FF45CAF2E4A40F28711FD
:1067B000EEE72A48002300881A461946FFF737FFFC
:1067C00000283FF44EAF274A40F29111E0E7037AE8
:1067D000012B7FF446AFFFF738FF00283FF441AFAD
:1067E000204A4FF4CC71D3E780881321FFF715FFBF
:1067F00000283FF436AF1B4A4FF4D071C8E7A379A5
:10680000002B7FF42EAF154B13211888FFF705FFDF
:1068100000283FF426AF134A40F2A711B8E7184BFF
:106820000BB1AFF3008017490020FFF702FF0028EB
:106830003FF417AF0B4A40F2C711A9E70023808845
:10684000ADF8043001A9FFF7F6FE00283FF409AFC8
:10685000044A40F2D1119BE70000000064B8002018
:1068600028AA002006540300615403000000000021
:106870007154030000000000BD620200000000002F
:10688000000000009499002008B5024AB02103F0EE
:10689000B4F908BD0654030008B503784BB9054B9D
:1068A0003B211888FFF7B9FE18B1034ABA2103F05B
:1068B000A4F908BD64B800200654030008B5024AD4
:1068C000AC2103F09AF908BD0654030013B5044641
:1068D0000548019107F004FD019A0448214603F0A0
:1068E0008CF902B010BD00BF83540300EFBEADDED3
:1068F0001FB5184C00230293ADF80030CDF80B30D3
:1069000023681B788DF80230E5238DF803300622CA
:106910004CF2980369460DF10900ADF8043007F018
:10692000F5FB23685B884FF6FF72934207D006227F
:1069300069460DF10900ADF8003007F0E7FB02A849
:10694000FFF765FE20B1044A40F22B2103F055F910
:1069500004B010BDB8A700200654030007B506F028
:10696000F9FF20B10F4A40F2332103F046F900232A
:1069700001A90120019307F0C1F820B1094A40F2B2
:10698000392103F03AF901A807F08AF920B1054A44
:1069900040F26E2103F031F9FFF7AAFF03B05DF872
:1069A00004FB00BF0654030010B51D4C86B0112334
:1069B0008DF80C30236859680191084607F0E0FD16
:1069C000019982B203A8FFF72EFE20B1154A4FF4B9
:1069D000207103F012F94FF47070FFF720FE20B120
:1069E000104A4FF4217103F008F90822002104A88D
:1069F00007F026FC23685A899B89ADF8123004A859
:106A00004FF0C873ADF810200593FFF70AFE20B1D0
:106A1000044A40F28F2103F0F0F806B010BD00BF29
:106A2000B8A700200654030000B5ADB0AC22002189
:106A300001A807F005FC02238DF8043040F2016341
:106A4000104AADF806300123ADF8143006928DF8E7
:106A500080304FF4F07244F25063CDE923230A48AA
:106A60000A4B2A9301A906F06AFA20B1084A4FF4AA
:106A70002D7103F0C2F80448012106F05DFA2DB033
:106A80005DF804FB90990020BCA70020536602002B
:106A90000654030000B589B01C22002101A807F0AC
:106AA000CFFB00234FF42032CDE90132ADF8123094
:106AB0004FF470228DF81430094B03920693032291
:106AC000084B8DF8102001A8079306F0F9FC20B1BF
:106AD000054A40F2CB2103F090F809B05DF804FBC1
:106AE00099680200896802000654030007B5074B45
:106AF0000748019301A906F05DFE20B1054A40F266
:106B0000D62103F07AF803B05DF804FBBD680200FB
:106B100028AA00200654030008B503F06BFA20B140
:106B2000024A4FF44A7103F068F808BD06540300A6
:106B300008B50648032106F081FA30F0080304D0B6
:106B4000034A40F2353103F058F808BDBCA70020D5
:106B50000654030008B5074B93F85400FFF75BFD9C
:106B600030F0080304D0044A40F23F3103F045F806
:106B700008BD00BFBCA700200654030008B5FFF7FE
:106B800066FD20B1024A4FF4557103F036F808BD96
:106B90000654030008B51A4B186004F0EFF920B151
:106BA000184A40F2613103F028F8FFF7B5FFFFF70C
:106BB000D5FE154807F094FBFFF7F6FE134807F0E3
:106BC0008FFB1348002106F0FFFC20B10D4A40F274
:106BD000962103F012F80F4807F082FBFFF724FF1D
:106BE0000D4807F07DFBFFF781FF0C4807F078FBAD
:106BF000FFF750FF0A484FF6FF73038008BD00BF40
:106C0000B8A7002006540300A8540300B954030099
:106C100014AA0020C4540300D0540300E35403001A
:106C200064B8002010B5038A044623B9427B037B75
:106C300043EA0223038204F112012046FFF703FD19
:106C400020B1094A40F2913102F0D7FF04F1140259
:106C500004F110010120FFF7F0FC20B1024A40F2DC
:106C6000963102F0CAFF10BD065403002DE9F0472B
:106C700090B0DDE91A781C46BB7C8DF80E300646D4
:106C8000B8F80030BDF86090ADF80C300D463846CD
:106C90000DF10E019246FFF7D6FC20B1384A40F2C2
:106CA000A53102F0AAFF1C22002109A807F0C8FAAA
:106CB000EB00720002F0020203F0080313434FEAF4
:106CC0000A1A9DF824200AF0100A43EA0A0322F067
:106CD0001A020DF1040A0021134350460322CDE9A4
:106CE0000C11CDE90E118DF824300A9107F0A8FAA5
:106CF00041F21113ADF804309DF80630CDF838A0FC
:106D000001220DF1080A62F34203002103225046DA
:106D10008DF8063007F094FA16B111238DF808307B
:106D200015B111238DF809309DF80A3004F00104E3
:106D300023F01F0344F004041C431422002104A880
:106D40008DF80A4007F07CFA03ABCDE9043A002342
:106D5000ADF81A30199B0893B88AADF8189008F16D
:106D6000020304AA09A9ADF81C90FFF768FC20B142
:106D7000034A4FF4747102F040FF10B0BDE8F08791
:106D800006540300C0884B88C31A584258417047C4
:106D900070B506460D461E4CFFF7DCFE8EB104F1C1
:106DA00055011F2304F50E723046C4F83412A4F8BE
:106DB000383205F0B1FE20B1164A40F21A5102F005
:106DC0001CFF05B31449C4F83C121F2301F1FD0256
:106DD0002846A4F8403205F09FFE20B10D4A40F24B
:106DE000225102F00AFF0D4A02F5FC7102F118006F
:106DF000FFF70FFC20B1074A40F22A5102F0FDFED6
:106E0000FFF796FE70BDC4F83C52A4F84052EAE782
:106E1000BCA7002006540300FFA80020F8A700200C
:106E200000B5182991B00A4628BF182201460B4820
:106E300007F06CF93C22002101A807F001FA0623B3
:106E400000218DF8073001A8054B8DF804100A9336
:106E5000FFF79EFF11B05DF804FB00BF34AA0020CD
:106E60008499002028B139B10023C1E900301846C7
:106E7000704748F21050704748F2135070470000B6
:106E800070B505460C461E46FFF7ECFF70B9AB79AE
:106E90006AB1B3420ED12979094B53F8213063B15D
:106EA00011462046984708B9064B236070BD48F24A
:106EB0001050FBE748F21150F8E748F20350F5E7AD
:106EC000F45403007052464DF0B528B14079D9B161
:106ED0008AB948F2135315E01846F8E7441E002516
:106EE0004E5D0F5D575516550135013CA542F7D94A
:106EF0001B1A014402448342F0D2002B48F2115283
:106F000018BF13461846F0BD48F21053FAE70000C8
:106F1000054B1A78022A04D01878431E584258416B
:106F200070470120704700BF6BAA002001F01F02CC
:106F30004B090121914000EB830003F022BA4B0979
:106F400010B501F01F040121A14000EB830003F004
:106F50000CFAE04000F0010010BD01F01F03012217
:106F60009A404B0900EB8300D14303F022BA4B094E
:106F700001F01F0150F82300C84000F001007047E5
:106F80002DE9F0474F1E7F0980460E460137002548
:106F900058F8254008EB8509E44394FAA4F4B4FAC0
:106FA00084F44FEA451A202C06D10135AF42EFD8C0
:106FB00034462046BDE8F0875444A642F5D9214620
:106FC0004046FFF7BCFF0028F3D0D9F80040E44367
:106FD00094FAA4F4B4FA84F4E5E77EDF70477FDF27
:106FE000704785DF704786DF704710B504464088DC
:106FF00001F052FDA0802046BDE8104001F034BAF7
:1070000010B586B0044618220021684607F018F92A
:10701000042368468DF80030ADF80240FFF7E5FF25
:1070200006B010BD30B587B005460C4618220021C9
:10703000684607F005F9072368468DF80030ADF87B
:1070400002500294FFF7D1FF07B030BDF0B587B012
:1070500004460F4616460021182268461D4607F0D2
:10706000EFF803238DF80030094BADF80240197892
:107070008DF8087000222046ADF80A608DF80C509B
:1070800004F09EFE6846FFF7B0FF07B0F0BD00BFFA
:107090009D9900207FB502238DF800300388ADF85C
:1070A000023043798DF8091013F0040F14BF012347
:1070B000022368468DF80830FFF797FF07B05DF8A8
:1070C00004FB000070B5154B0E4686B014460A4608
:1070D0001978054604F074FEF6B1114B221E19789A
:1070E00018BF0122284604F06BFE631E5A425A4123
:1070F0000C4B2846197804F063FE182200216846DC
:1071000007F09EF8012368468DF80030ADF8025074
:107110008DF80840FFF769FF06B070BD9D9900200B
:107120009F9900209E99002073B50192154A0D4643
:107130001178044604F02CFE019B014600B3124A6C
:107140002046117804F024FE002804F580704FF0EA
:10715000070180B214BF0126022600F01DFC019B2E
:10716000014628B1052803D02046FFF75BFF019BAD
:107170002A463146204602B0BDE87040FFF766BFA0
:107180002A46F7E79F9900209E9900202DE9F041BB
:107190008AB00E469046044604F0D6FD20220546ED
:1071A000002102A807F04CF8012D08D1364B00222F
:1071B0001978204604F004FE36B9852715E0002D25
:1071C0005BD143F2020053E0204601F065FC4FF62C
:1071D000FF73984210D100273378DB0720D42B4B64
:1071E000CDF814800993012D4AD102AB32463946BD
:1071F0002046FFF7F4FE3BE0012DECD1224F204664
:10720000397804F0C5FD0028E5D12046FFF7F8FEE7
:107210003978204604F0BCFD0028DCD18527DBE767
:10722000852FE0D004F580706B460122072180B2E3
:1072300000F052FB11281BD0E8B9014650220198FA
:1072400006F0FEFF019B1D700199CDF8148001F13D
:107250003403029301F1180306934B1C0793113179
:107260000A4B0993204601F029FC0028BBD00820D6
:107270000AB0BDE8F0810320FAE7002EA4D18527EB
:1072800002AB0022B3E700BF9C9900206CAA00204B
:107290007FB505460E46144604F056FD012856D02B
:1072A000022858D156B931462846FFF796FE0428E1
:1072B000044600D11124204604B070BD294B22465B
:1072C0001978284604F07CFD284601F0E5FB4FF6CE
:1072D000FF7398422CD05CBB02AA072100F0F8FA99
:1072E000044600283AD1039991F84430DB0713D5BE
:1072F00001F13404463122462846FFF772FE044667
:1073000002E0112C18BF03240022B4FA84F14909C9
:107310002846FFF7D7FECEE701F118042A310846C8
:10732000019101F009FC01990028E4D10B24EBE75D
:1073300031462846FFF751FE327802F00102C2F1D1
:107340000202042814BF04461124D2B2DDE7002E45
:10735000A9D13446AFE743F20204ACE70528D0D107
:107360001124D1E79C9900202DE9F0470388113BB7
:107370008AB004460D2B6AD8DFE813F00E006900CE
:10738000230044006900690069006900B2004101FE
:107390006900690069009600037A84883D2BAE4B32
:1073A0002046197841F23D0518BF4FF4885504F086
:1073B000EFFC00284BD0002229462046FFF7B4FE00
:1073C00045E0808804F0C0FC0128014608D1227AFB
:1073D000A08802F00102C2F10202D2B2FFF772FEEF
:1073E00034F8045F1822002104A806F029FF0434B1
:1073F00005238DF81030ADF81250069404A8FFF75D
:10740000F4FD24E000F11006304601F0B6FB4FF623
:10741000FF7398420546A0881CD101F03DFB05464C
:10742000A08800220121FFF74DFE4FF6FF739D4219
:1074300014D1002500232946A0881A46FFF7D3FD62
:107440000828014603D010B3A088FFF7EBFD0AB06F
:10745000BDE8F087294601F0B1FBE1E704AA072166
:10746000284600F035FA0028E3D1A37ED907E0D5FD
:10747000059D95F84430DA0701D53435DAE7314611
:1074800005F1460001F065FB0028F6D1D1E7A37EA7
:10749000DB07DCD5002DDAD1A0882B4641F20602AD
:1074A0002946FFF7D3FDD2E76B4B8088197804F0AB
:1074B0006FFC01460028CAD1182204A806F0C0FEBD
:1074C00012238DF81030A388ADF81230237AC3F35D
:1074D0000002C3F340038DF818208DF819308DE7B2
:1074E0005D4B90F8088085881978B8F1000F78D145
:1074F000061D4246284604F063FC617A11F004013F
:1075000003D13046FFF7C6FDA1E705F580791FFAE4
:1075100089F902AB01220721484600F0DDF9074650
:1075200028B101462846FFF77DFD4146E9E7284698
:1075300001F0B2FA4FF6FF739842044682462FD10B
:107540000146039801F08AFA50450446804677D0F8
:10755000DFF80CA10146284601F030FB9AF8001034
:10756000284604F015FC8046D0B92846FFF748FDB0
:107570009AF80010284604F00BFC01460028C0D001
:1075800007212246484600F030FA014650B9012151
:10759000B7E72146284601F011FB4FF00108EFE75D
:1075A000B846EDE786280DD11822002104A806F080
:1075B00047FE062304A88DF81030ADF81250FFF7EF
:1075C00014FDE4E72846FFF72DFD00213046FFF7C4
:1075D00061FDB8F1000F3FF43AAF204601F0F8FA30
:1075E00035E7427A284602F00302019204F0D0FB0C
:1075F000019A00283FF42BAF41462846DEE6174BA0
:107600008088197804F0C4FB054600287FF41FAF7A
:10761000A08804F0ABFB0146A08819B9012341F210
:1076200006023EE70C4B2A46197804F0C9FB0223F8
:107630008DF81030A388ADF81230ADF81850DDE6A3
:1076400000F0CEFD40450446A3D104212846FFF7B3
:10765000E9FC394655E700BF9D9900209F9900201D
:107660009C9900200A68084B70B50C25012A01D9A5
:10767000002006E005FB02F4E65A864202D10A60C9
:10768000181970BD0132F1E7C0AA002037B50023F8
:107690000D460446019301A9FFF7E4FF38B1837852
:1076A000AB4206D1837A9B0703D143680BB903B081
:1076B00030BD019B0133019301A92046ECE710B5D1
:1076C000044600F0E5FF204600F0FEFE204601F0F3
:1076D00093FB2046BDE8104000F056BB70B50E4E3F
:1076E00004460025237AAB420DD84FF6FF73238062
:1076F000A370002363604FF47F432381A37A23F0B8
:107700000303A37270BD617A2944C9B2304601F007
:1077100074F80135E6E700BFB0AA002013B50023D6
:10772000CDE90033417A83788DF80230044626484B
:1077300001F04AF860B3237AA2788DF8022003EBB7
:1077400083039B00ADF80030531E0190072B08D82F
:10775000DFE803F016070707071604181423ADF82F
:1077600000302246694632F8040B00F0F7FC11287D
:1077700015D00BD870B1072818BF032002B010BD78
:107780000123ECE7838809339B08E8E7862811D0BA
:107790000320F3E7A37A23F00303A372EEE7A37AAF
:1077A00023F0030343F00203A372084B01221A7073
:1077B0000020E3E7A37A23F0030343F00103A3725D
:1077C000024B01221A70D9E7B0AA0020ACAA00200F
:1077D0002DE9F0413B4DC3686A68934286B0064686
:1077E0001AD02A69934219D101240C2000FB0454B9
:1077F0003378354F092B13D0132B3DD0082B09D1EB
:1078000096F80980B8F1000F04D1002C35D020463D
:10781000FFF764FF002430E00024E6E70024E7E7F8
:10782000707A0028F6D144B3A37A606043F0020373
:10783000A372044600233B70AB7A9E07C3F3400259
:1078400001D4D80707D501233B7002B91CB11D48EC
:10785000FFF764FFD0B9AB7D9907C3F3400201D4B1
:10786000DB0710D501233B7002B964B11748FFF75D
:1078700055FF40B101220AE001243046FFF71FFF07
:107880003B78002BD6D106B0BDE8F08100224FF640
:10789000FF73ADF802300C2353438628EB5AADF842
:1078A000043017BF072306238DF80030029018BF5D
:1078B000002368460CBF8DF800308DF80C30FFF7C0
:1078C000FEFEE0E7C0AA0020ACAA0020CCAA00205F
:1078D000002300F0D7BB00002DE9F04180460E46A2
:1078E00014461F46002B4ED0CB1F012B4ED8531EE3
:1078F000012B4BD8FFF7CAFE054610BBFF214FF600
:10790000FF70FFF7C3FE0546C8B1A0F8008086707F
:107910006B7AFF2B1AD11F48214600F086FFFF2803
:1079200068722DD14FF6FF732B8000236B604FF4EC
:107930007F432B81AB7AA87023F00303AB72112035
:1079400022E0037AA342E3D00F201DE04FF00008AD
:10795000697A10482C7200F037FFC8B104EB840438
:107960002401A4B2A408BE7078603C80B8F1000F76
:1079700004D0082E02D1A400063C8480002003E03D
:107980004FF00108E4E70E20BDE8F0810720FBE797
:107990000320F9E7B0AA002008B5FFF777FE18B179
:1079A000FFF79CFE002008BD0520FCE713B500236F
:1079B0000446019301A9FFF755FE30B9204600F0B7
:1079C00013FC50B1072807D107E081782046FFF764
:1079D000E3FF20B1052802D0032002B010BD019BB7
:1079E0000133019301A92046E5E7CB1F012B70B5B8
:1079F00006460C46154601D9072070BD104600F01A
:107A0000FEFB0028F8D021463046FFF73FFE28B1A4
:107A100005808470BDE87040FFF780BE0520ECE76C
:107A2000A0DF7047A1DF7047ADDF7047B3DF70475D
:107A300010B50446408801F02FF8A0802046BDE82C
:107A4000104000F0A5BD30B587B005460C461822A1
:107A50000021684606F0F4FB072368468DF80030E5
:107A6000ADF802500294FFF7E3FF07B030BD00000D
:107A700030B587B0054618220021684606F0E0FBC5
:107A80004FF6FF739D42ADF8025023D0284601F017
:107A900004FA1128044617D007D860B10B2811D07A
:107AA00021462846FFF7CFFF03E043F20203984246
:107AB000F6D1002209E00E2368468DF80030FFF76A
:107AC000B7FFF6E70F23F7E70122034B28461978A3
:107AD00004F076F907B030BDDFAA0020FFF7C8BF79
:107AE000024B03491878002204F088B9E1AA00206B
:107AF000F57A02002DE9F047424D88B02978044616
:107B000004F046F9A8460646002873D1204601F045
:107B100017FA0828014622D006D888B1062852D084
:107B20002046FFF790FF09E043F20203984205D098
:107B300043F20143984260D01128F1D101254DE074
:107B40003146182202A806F07BFB102302A88DF80C
:107B50000830ADF80A400126FFF76AFFEEE701A8FA
:107B6000FFF764FF20B128494FF49870FEF7AEFE8E
:107B7000002501274FF002090DF1060A11E002AAC3
:107B800039462046CDE9029AFFF74EFFD8B9BDF835
:107B90000630013755B942F605255B1B5D425D4154
:107BA000BFB2BDF80430BB42E9D80CE042F6021285
:107BB0009342F5D10DF1020302AAB9B22046039314
:107BC000FFF732FF30B1204600F066FF01F0D2F936
:107BD000002503E0BDF80230002BF4D00B4B2A4601
:107BE0001978204604F0ECF898F800103246204648
:107BF00004F0E6F808B0BDE8F0872046FFF738FF4C
:107C00009CE700BFE2AA00203B550300E1AA002048
:107C100013B5044600F040FF00236A46092100F036
:107C200031FA052805D1044B01221978204604F0C9
:107C3000C7F802B010BD00BFDDAA002008B5084B90
:107C400008491878002204F0D9F8024630B9064BEA
:107C500006491878BDE8084004F0D0B808BD00BF58
:107C6000E0AA0020B97C0200DDAA0020717C02009D
:107C700037B5044604220021684606F0E1FA42F6D0
:107C8000A623ADF800300A4B18680190012501AA1F
:107C9000694620468DF80250FFF7C2FE28B9054B11
:107CA0002A461978204604F08BF803B030BD00BF97
:107CB000F0550300DCAA002030B5012187B005464D
:107CC000204802F047FB0446BFF35F8FB0BB284655
:107CD00001F09EF8862801460ED007D8D0B11128B1
:107CE0002ED02846FFF7AFFE002403E043F2020344
:107CF0009842F6D122460FE018222146684606F047
:107D00009FFA062368468DF80030ADF80250FFF761
:107D10008FFEEFE7012402460B4B2846197804F04A
:107D20004FF85CB9074C2268012A03D00749932019
:107D3000FEF7CCFDBFF35F8F0023236007B030BD9B
:107D40000122E9E7D8AA0020E0AA00209355030009
:107D500038B503780446A3B94088FFF789FE6588E3
:107D6000284601F0DAF828B1064B01221978284696
:107D700004F026F86088FFF74BFFBDE83840FFF7B6
:107D80005DBF38BDE1AA002037B50378082B044653
:107D900030D1437A73BB057A072D1BD0082D2DD027
:107DA000012D27D180886A462946FFF791FD08BB3F
:107DB000019B1B78F3B1A08800F09CFE4FF6FF7387
:107DC000984217D0154B2A46197803F0F9FFFFF7B0
:107DD00087FE0FE0808800F08DFE4FF6FF7398421B
:107DE000044607D00E4B0122197803F0E9FF204624
:107DF000FFF70EFFFFF722FF03B030BD094C2368E9
:107E0000012BF7D12368012B03D007499320FEF7FC
:107E10005DFDBFF35F8F00232360EBE7E1AA002045
:107E2000E0AA0020D8AA00209355030073B50123CF
:107E3000ADF8003009238DF802300D4B00242246A6
:107E40000E461978CDF8034005468DF8074003F03B
:107E5000B7FF084B08492846A64218BF19460191AA
:107E600000F01AFE2246694600F078F902B070BDB3
:107E7000DDAA0020F8550300F455030070B503880F
:107E80008488502B86B0054637D00DD8352B47D087
:107E9000362B62D03E4B3F491878002203F0AEFFEC
:107EA000FFF71EFE06B070BD522B22D0542BF1D12D
:107EB00018220021684606F0C3F9112320468DF8E8
:107EC0000030ADF8024000F0E7FDADF8040001F02D
:107ED00051F8314B20461978002203F071FF2F4BE7
:107EE00020461978002203F06BFF6846FFF7A0FDDB
:107EF000D0E72046FFF7BCFDCCE7037B012BC9D1BF
:107F0000827A012AC6D1018942F602139942C1D16F
:107F1000234B2046197803F053FFFFF78FFEB9E794
:107F2000204E2046317803F033FF0028B2D00022E3
:107F30003178204603F044FFEA883ABBAE89012E2F
:107F400024D1E9892046FFF76DFDF8B9164B32467A
:107F50001978204603F034FF9CE7134E2046317811
:107F600003F016FF002895D031780022204603F058
:107F700027FFE98851B9EB89012B03D1297C00390E
:107F800018BF01212046FFF751FF83E70021F9E7E1
:107F9000DFAA0020DD7A0200E2AA0020E1AA002088
:107FA000E0AA0020DCAA0020DEAA0020012804D0DC
:107FB000043805288CBF0020012070474FF6FF735E
:107FC0004380FFF705BC73B504460D4616460021F5
:107FD0000822684606F034F9A5F58041A4F58040F2
:107FE0006B46324689B280B201F0F8FC002818BF17
:107FF000052002B070BD0000F0B5214E8DB000210B
:10800000082201A8317006F01BF94FF6FF7000F04E
:10801000CFFC4FF6FF770446BC4211D0A4F5804553
:10802000ADB201AA03A9284601F0F2FC0A2809D042
:10803000284601F0ADFC082805460BD1012333701A
:108040000DB0F0BD204600F055FC204600F0B0FC1D
:108050000446E1E7002DF3D0182200210DEB0200C9
:1080600006F0EEF807238DF8183006A80123ADF8C6
:108070001C4008958DF82430FFF7A0FFE0E700BF13
:10808000ECAA0020F0B5FF2887B004460E4615463E
:108090001F462BD80846FFF789FF38B303AA2046AE
:1080A000FFF791FF18B10524204607B0F0BD01A9E4
:1080B00003A801F01BFC04460028F4D1019BAE701C
:1080C0005E8802992E8027B9696003A801F032FC0E
:1080D000EAE73F886868B600B74228BF37463A46A5
:1080E00006F014F8BE42F0D90C24DDE70724DBE7E4
:1080F00002480822002106F0A3B800BFE4AA00202D
:10810000F0B587B006460F461546FFF74FFF044609
:10811000F8B1A6F58040104A03A980B201F06BFCCB
:1081200018B10024204607B0F0BD01A903A801F052
:10813000DDFB0028F5D1019BAE705A882A80029A97
:108140006A609B8803F580433B8003A801F0F2FB43
:10815000E8E70124E6E700BFE4AA002030B5FF28E5
:1081600087B003460C46154634D889780846FFF791
:108170001DFF78B3A3F58042ADF80020A1F5804241
:10818000ADF802206268019222880292184603AA82
:10819000FFF719FF0528694603A80AD101F0ECFB97
:1081A0000728044618D007D868B10324204607B032
:1081B00030BD01F0E5FBF3E708280FD00E2814BF0F
:1081C00003241124F2E7002DF0D0294603A801F082
:1081D0002CFCEBE70724E9E78624E7E71124E5E731
:1081E0004FF6FF7000F06EBBFF2808B505D800F011
:1081F0006FFBFFF701FF002008BD0720FCE700F040
:108200008FBB00F0BBBB00F0D3BB70B586B0064699
:108210000C46154600211822684606F011F8304633
:10822000ADF8026000F038FC0D2CADF8040019D157
:1082300003238DF800309DB12B7803F00103C3F1C7
:108240000203DBB28DF8083000238DF80C3041F2C8
:108250000113ADF80A30684600F096F906B070BD1B
:108260000223EFE707238DF80030002302948DF8F6
:108270000C30F0E730B587B005230D4614468DF875
:108280000030ADF8020000F007FCADF804006846CD
:10829000CDE9025400F078F907B030BD2DE9F04384
:1082A000064687B090461F460D46E1B93A4BCDE9E8
:1082B00004111B68039306AA12E907006B4683E8C2
:1082C00007001A4629463046FFF7D4FF334BDDF846
:1082D00000901B784BB99DF8093033B90525284625
:1082E00007B0BDE8F0834FF00009424649463046EA
:1082F000FEF7CEFFA0F111035A425A41284B044623
:108300001978304603F05CFD112C2DD8072C0FD8BE
:10831000002C3DD00325002FE1D034F00803DED03F
:10832000112CDCD04A4621463046FFF76EFFD6E7D7
:10833000A4F10803092BEDD801A252F823F000BFE5
:1083400095830200158302001583020095830200C5
:108350001583020095830200158302001583020035
:10836000158302007983020043F202039C42D1D1BB
:108370002546002FB3D0D5E70A4B2A461978304658
:1083800003F01EFD084B42461978304603F018FDF5
:108390000025A4E72546BEE7FCAA0020F9AA002094
:1083A000A2990020A1990020A099002013B50A4BA2
:1083B0001978044603F0ECFC084B0190197820462C
:1083C00003F0E6FC019A01460123204602B0BDE815
:1083D0001040FFF763BF00BFA0990020A1990020C3
:1083E00070B51B4B86B00026CDE904661B6803936D
:1083F00006AA04460D4612E907006B4683E807000B
:108400001A4629462046FFF735FF124B00991A6895
:108410002046FEF7BBFEA0F111035A425A410E4B13
:1084200005461978204603F0CBFC0C4B32461978F0
:10843000204603F0C5FC35F0080306D0112D04D00A
:10844000009A29462046FFF7E0FE06B070BD00BF47
:10845000FCAA0020F0AA0020A3990020A2990020E5
:108460000021FFF7BDBF000010B50378052B0446BF
:1084700006D0122B0AD02046BDE8104000F084B888
:1084800081684088BDE81040FFF7AABF0C4B1B680D
:108490009BB10C4B017A1B7803F0010291420CD87E
:1084A000417AC3F34003994294BF002101216088BF
:1084B00001230022FFF7F2FEDDE70121F7E700BF0D
:1084C000FCAA0020F4AA002008B503780B2B0FD8D3
:1084D000072B0FD9084B09491878002203F08EFCAE
:1084E000074B084918780022BDE8084003F086BC15
:1084F000132BEFD008BD00BFA399002061840200B8
:10850000A2990020AD83020008B5FEF72DFF074BAE
:1085100007491878002203F071FC064B06491878C9
:108520000022BDE8084003F069BC00BFA399002009
:1085300061840200A2990020AD830200F8B5074DC6
:10854000074E074600243378A34200DCF8BD55F8F7
:10855000043B384698470134F5E700BF08AB0020DC
:1085600017AB002010B5074B1B7804464BB100F049
:1085700091FB2046FFF7C8FF2046BDE81040FFF7FB
:108580007DBC10BD16AB002008B1FFF7D7BF704708
:10859000FFF7D4BFFFF7D2BFFFF7D0BF2DE9F04FF1
:1085A00087B0814601932E4B1B7888461646002BD8
:1085B00053D04FF6FF70FFF724FE0423ADF80A30C6
:1085C00003AB0025059304AA0DF10A030621044616
:1085D00003950495FFF756FD07283AD04FF6FF772D
:1085E000BB464FF0FF3AF0B1052825D04FF6FF7398
:1085F0009C4230D1A3452AD0A7420CBF05200020C1
:10860000B9F1000F01D0A9F800B0B8F1000F01D006
:10861000C8F8005006B13780019B0BB1C3F800A029
:1086200007B0BDE8F08F039BAB4224BFA3461D46B5
:1086300053453CBF27469A462046FFF7E2FD0DF121
:108640000A0304AA06210446FFF71CFDCBE7052018
:10865000D6E70520E4E70320E2E70820E0E700BFD3
:1086600016AB002008B50023064907481A46FFF755
:1086700095FF28B1431F58425841044B187008BD5C
:108680000120FAE700AB002014AB002018AB00205B
:10869000F0B5044687B0808800F02CFA237860801B
:1086A000083B032B20D8DFE803F002213166637A10
:1086B0005BB9404A116851B1E068814207D113604B
:1086C0003D4AA1881180E3600EE0012B0CD13B4BA9
:1086D0001B784BB1384BA2881B889A4204D1237A6D
:1086E000062B01D1FFF7BEFF204660E0637A002B26
:1086F000FAD1304A11680029F6D0E0688142F3D1FE
:108700002F4913600A68013A0A60DCE72D4F3B7875
:1087100073B90125294B1B7833B1274BA2881B88DD
:108720009A4201D1FFF79EFF002DDDD107B0F0BDC9
:108730004FF6FF70FFF765FD4FF6FF739842054651
:10874000E7D1FFF760FDA8420646E2D100251822D6
:10875000294668463D7005F073FD0C2320468DF8D0
:108760000030ADF80460ADF80260FFF7E7FE684640
:10877000FFF7E4FECEE7134B1A78002AB4D00021AD
:1087800018226846197005F05BFD0D238DF8003046
:108790004FF6FF73ADF80430ADF80230A3680293D2
:1087A0002046237B8DF80C30FFF7C8FE6846FFF7A4
:1087B000C5FEBBE71CAB002014AB002018AB0020AB
:1087C00000AB002004AB002038B50C46054608B9C4
:1087D000002038BD0368002BFAD040680028F7D08D
:1087E000FF29F5D0BFF35F8FFEF7C1FB0028EFD064
:1087F000E968286801FB0400EBE738B50D4604463C
:1088000090B1036883B1406870B1FF290CD0BFF309
:108810005F8FFEF7ACFB38B16068BFF35F8F29460E
:10882000BDE83840FEF799BB38BD2DE9F0418846D8
:10883000064618B9FF242046BDE8F0810368002BE6
:10884000F8D04368002BF5D00027FF24B368FDB2B1
:108850009D42EFD270682946FEF771FBBFF35F8F30
:1088600040B9FF2C08BF2C462D1B01354545E2D0F1
:108870000137EBE7FF2C07D1FF24F9E7214630460B
:10888000FFF7BBFF0134E4B2AC42F7D3F4E710B515
:108890004FF6FF7304469C4208460AD14FF480719C
:1088A000FEF76EFB84B2B4F5807F09D14FF6FF74FA
:1088B00006E0FF2CFAD82146FEF741FB0028F5D14F
:1088C000204610BD0149FFF7E2BF00BF20AB0020EA
:1088D0004FF6FF73984210B5044606D00449FFF7DF
:1088E000D6FF231A5842584110BD0020FCE700BFB4
:1088F00040AB0020FF2807B501460AD80190064882
:10890000FEF72BFB0199054803B05DF804EBFEF779
:1089100024BB03B05DF804FB20AB002040AB00207B
:10892000FF28014602D80248FEF721BB002070470D
:1089300020AB0020FF28014602D80248FEF717BBF3
:108940000020704740AB00204FF6FF73984270B58F
:1089500018BF441C0E4614BFA4B20024A5B2FF2DBC
:1089600002D94FF6FF7506E021463046FEF7FFFAC2
:1089700001340028F2D0284670BD000070B50B49C4
:108980000A4EFFF7E1FF4FF6FF750446AC4201D1F6
:10899000204670BD2046FFF7CDFF0028F8D02046C6
:1089A0003146FFF7D1FF0446F0E700BF20AB0020BF
:1089B0000149FFF7C9BF00BF40AB002046DF704749
:1089C000421E00F10F0312F8010F10B99A42FAD1BA
:1089D00070470120704708B570B171B103780A780B
:1089E000534013F0FE0F08D106220131013005F08B
:1089F0005DFBB0FA80F0400908BD0020FCE72DE9DE
:108A0000F04700F101084F1C06460D4600F1110920
:108A100001F1110A10223946404605F047FB044691
:108A2000D0B94046FFF7CCFF18B13846FFF7C8FF72
:108A3000044651464846FFF7CEFF737C03F0FC0323
:108A4000042B05D06B7C03F0FC03042B18BF0446F9
:108A500004F00100BDE8F0870024EAE730B585B0F6
:108A600004460D46FFF744FB02AA0DF1060107205C
:108A7000FFF746FB10B94FF6FF700BE0BDF806306C
:108A8000AB42F1D003992046FFF7B9FF0028EBD0A5
:108A9000BDF8060005B030BD132810B5044602D954
:108AA0004FF6FF7010BD03F045F90028F8D00A20FA
:108AB000014B4443185BF5E760AB0020132838B541
:108AC00004460D4602D943F2020038BD03F032F9E4
:108AD0000028F8D006480A2303FB040050F8023FA0
:108AE0002B608388AB808379AB710020EDE700BFFA
:108AF00060AB00204FF6FF7398422DE9F041054628
:108B00000CD00C4F00244FF00A0808FB04F3A6B267
:108B1000DB5BAB4205D00134142CF6D14FF6FF7667
:108B200004E0304603F006F90028F4D03046BDE8F2
:108B3000F08100BF60AB0020038843B9821C00F1C4
:108B40000A0312F8010B10B99A42FAD170470120BA
:108B5000704710B50446FFF7EFFF58B122880B8825
:108B60009A4208D108220231A01C05F09FFAB0FAFF
:108B700080F0400910BD0020FCE71FB50446FFF758
:108B8000B7FA02AA0DF106010720FFF7B9FA10B9EA
:108B90004FF6FF7007E0039920464631FFF7D9FFF3
:108BA00018B1BDF8060004B010BD039920462A3163
:108BB000FFF7CFFF0028E4D0F3E7000013289FBFA2
:108BC0000A235843014B1952704700BF60AB002085
:108BD00038B50546FFF78EFF04462846FEF7E6FE49
:108BE00038B9132C05D80A235C43024B4FF6FF72A9
:108BF0001A5338BD60AB002070B58CB014466A467D
:108C00000D4600F11003164613F8011D02F8011B72
:108C10009842F9D10D22002104A805F011FB2B7810
:108C20008DF81F306B788DF81E303046AB788DF89C
:108C30001D30FFF7C3FE9DF82F3023709DF82E30B6
:108C400063709DF82D30A3700CB070BD30B5037803
:108C500003F0FE03042B85B004460D4618D1411CD9
:108C6000032201A805F052FA0322211D03A805F0F2
:108C70004DFA02AA03A92846FFF7BEFF032202A964
:108C800001A805F013FAB0FA80F0400905B030BD34
:108C90000020FBE730B50388102B93B04ED1041DA4
:108CA0000FCC07AD0FC50FCC0FC594E807009DF89A
:108CB000203003F0FE03062B85E8070009D0FFF7FC
:108CC00017FA9DF82030032B4FEA530204D9022AE9
:108CD0003DD04FF6FF7310E001AA0DF1020107200D
:108CE000FFF70EFA0028F4D0029908A81131FFF717
:108CF00072FE0028F0D0BDF80230BDF81C401848C4
:108D00000A226243811883529DF8262008980A722D
:108D10004FF6FF72C1F802009342BDF82400C880EC
:108D20000CD0ADF8083001A80023ADF806408DF84E
:108D30000430FFF731FC01A8FFF70AF813B030BD8B
:108D4000029908A80131FFF781FF0028D3D101AAB9
:108D50000DF102010720FFF7D3F90028F0D1B8E7A1
:108D600060AB0020AFDF7047B1DF7047B2DF704704
:108D7000B3DF704710B504468088FFF7BBFE608004
:108D80002046BDE81040FFF705BC0000F0B5184BC9
:108D9000184D93E8030089B06E4686E803004FF64D
:108DA000FF772888B8421CD000223146FFF7D6F959
:108DB0000446C0B11822002102A805F041FA2B8810
:108DC000ADF80C30112C0CD0862C0CBF06230723D9
:108DD00002A80EBF8DF808308DF808300494FFF714
:108DE000C9FF09B0F0BD2888FFF70BFA2880D8E743
:108DF0004C56030028AC0020044B1A884FF6FF7332
:108E00009A4201D0FFF7C2BF704700BF28AC0020D4
:108E10002DE9F7438046FFF73FFE4FF6FF73984278
:108E2000064637D001274FF003093A466B46082122
:108E30003046FEF751FD0137BFB2054628BB019908
:108E40000A46032342F8049B06314046FFF78EFF93
:108E5000044648B9324608213046FEF7C6FD0446AE
:108E6000204603B0BDE8F0830C280CD0052800D1C3
:108E70002C4608213046FEF78FFD002818BF03243A
:108E8000002DD2D1ECE70125F3E7072814BF0446F3
:108E90000C24E5E743F20204E2E72DE9F34107463B
:108EA000FFF7FAFD4FF6FF73984218D1002403250F
:108EB00026464FF001082B46224631463846FFF73A
:108EC00053FF042821D0082825D00B281ED115F0E7
:108ED00002030FD196B9ACB902B0BDE8F0816A4681
:108EE0000821FEF7F5FC0028E0D1019B9C881D6855
:108EF0009E1DDEE701254FF00008DCE703251C4638
:108F00001E46F8E703253446F5E71120B8F1000FB7
:108F100008BF0B20E0E70020F8E71FB50DF10703BD
:108F20000393FFF7B9FD02AA0121FEF7D1FC20B996
:108F3000039B187805B05DF804FB0020FAE70000F9
:108F400070B505460A48FFF713FF70B9084C43F2A5
:108F5000030621884FF6FF722846FFF703FFB04251
:108F600004D1238801332380F3E7032070BD00BFC1
:108F70002AAC002013B5074A044692E803006B466A
:108F800083E80300002219462046FFF7E7F802B005
:108F900010BD00BF5456030070B5064D06460024B0
:108FA00055F8043B0BB1304698470134042CF7D1F7
:108FB00070BD00BF38AC0020033082B240F2FD33F8
:108FC0009A42F0B51DD8104D00232E4628789FB246
:108FD00080B92C89B5F80AC064441444A4B2B4F52D
:108FE000806F07D20F80142101FB036359890A4463
:108FF0005A81F0BD0133092B05F11405E6D1072094
:10900000F7E70920F5E700BF70AC00200B4A0C4BD6
:109010005188142000FB0131CB6833B90420496822
:1090200010700122074801F0FDBB074905231370AA
:1090300002238B80012209680023F3E750AC002053
:1090400070AC002068A3002038AD002007B50023D5
:1090500005490093054A09680548082301F04CFBBF
:1090600003B05DF804FB00BF38AD0020C456030018
:1090700068A3002007B5002301460093034A044873
:10908000082301F039FB03B05DF804FBBC56030074
:1090900068A3002013B500230C4600930146084A3C
:1090A0000848042301F028FB38B90749142303FBBF
:1090B00004140123237402B010BD0E20FBE700BF8F
:1090C000B856030068A3002070AC002037B50A48EA
:1090D0000A4B42689C88196853880325033305703E
:1090E0009BB2002000909B0001EB8401044801F03A
:1090F00003FB03B030BD00BF50AC002038AD0020F2
:1091000068A3002010B50146044802F091FE1C221D
:109110000446002105F094F8204610BD24AD00203F
:109120004388033300EB8303994209D382884FF6C7
:10913000FF739A4206D00088B0FA80F04009704769
:10914000022070470120704738B5144B14220D4699
:1091500002FB00302B68446804F58051A3B15C88A1
:10916000033403EB84048C4215D22368013312D0FC
:109170002046FFF7D5FF012808D002280BD0002891
:10918000F1D12C60012038BD0834ECE7638803334B
:1091900004EB8304E7E70020F5E700BF70AC002094
:1091A00073B5426804460D464AB3224BD9688A42D9
:1091B00025D31B699A4222D812F003031FD11E49FE
:1091C0000089098988421AD120689168884216D19D
:1091D0001A4C1946606882428EB209D900F5805057
:1091E000824205D22E80B3FA83F0400902B070BDEE
:1091F0000131092904F11404ECD10A23F3E7002317
:109200002B801E460196288801A9FFF79DFF30B9E3
:109210002B8801339BB2082B2B80F3D9E6E7019B07
:10922000226899689142EED16360034B1B892381C8
:10923000DCE700BF68A3002050AC002070AC002029
:109240002DE9F8431C461D4B1B7806460F46154674
:10925000002B2FD0002A2FD074B3DFF868804FF096
:109260001409A388082B01D90A2021E009FB03F384
:1092700018F803302BB9A0882146FFF765FF20B905
:109280002060A3880133A380EBE723681EB199888F
:1092900032889142EFD11FB119883A889142EAD1C0
:1092A0009B682B6023686B60054B1B892B8100201A
:1092B000BDE8F8830220FBE70520F9E748AC002071
:1092C00050AC002070AC002008B5074B5888191D21
:1092D000FFF73AFF18B1BDE80840FFF7F7BEBDE859
:1092E0000840FFF793BE00BF50AC00202DE9F04FBF
:1092F000A34FDFF8B49289B00646B8463B6853B92D
:10930000A048494602F0CEFD386020B99E4940F29F
:109310008250FDF7DBFAD8F8005029784B1E052B58
:1093200007D8DFE813F0210074007400050105017F
:109330005C010F241422002103A804F081FF41F6F0
:109340001D539C4208BF0024D8F8003004941A78BA
:10935000013A052A00F2EE81DFE812F0DA01DE01BF
:109360000702170223022D0226B1884B00225A6001
:109370000124DFE72B79032B18D8DFE803F0100274
:109380002530834B142101FB06F2D05C022812D158
:109390009918002098544868FFF76CFE03E00123F9
:1093A0002B71FFF753FE002800F0BD80774B0022A1
:1093B0005A600E24BEE70136092EE4D1734B012218
:1093C0001A7000225A6001E1724973480023022298
:1093D0002B718A800968012201F024FAE3E76D4CC1
:1093E00000262E7120686A4DFFF744FE6B4BD4F8BF
:1093F00000C05A8814235343EA18EE545168216080
:10940000A188C2F804C011810222A280CBE7B5F87E
:1094100014A0AA7DDFF878B11423AEB1022A06D9D0
:1094200003FB0AB3EA88198903320A441A81142318
:1094300003FB0ABAEB88BAF80A20C3F57F43FD3371
:109440001344AAF80A3093E703FB0AB318895C684F
:1094500004EB8004062A69D8DFE802F0284E36447F
:109460001E5A040041F61D54AB7D022B07D914226D
:1094700002FB0AB2EB88118903330B4413811423D6
:1094800003FB0ABAEB88BAF80A20C3F57F43FD3321
:109490001344AAF80A304DE741484249002343608B
:1094A000AB690360FFF77CFE002858D00223AB7540
:1094B000002300930423EA182146374801F01CF9E1
:1094C000002830D00E24CFE72B69002B14BF0323D4
:1094D0000123AB750023009305F10C02042304F172
:1094E0000801EAE70123AB750022EB8800922A69A4
:1094F0009B0004F10C01E0E703290CBF05230623C0
:10950000AB7500230093042305F10802E118D4E7AA
:109510000623AB75234B1988214B5868FFF7BAFD1A
:1095200004460028A0D109B0BDE8F08F0F249BE7C6
:10953000002E7FF41DAF2B79012B37D0022B45D0A5
:10954000002B7FF4F6AE02232B71CDE904660DF1FA
:109550000A01EB68039303A8FFF722FE08B90A2467
:10956000E8E60498BDF80A108388EB8003882B8115
:10957000FFF790FD0446002C7FF4DCAED3E700BF7C
:109580006CAC002024AD00207056030048AC0020D5
:1095900070AC002038AD002068A3002050AC002043
:1095A0002CAC002040AD002064AC0020834B03AA0B
:1095B0003146A81DFFF744FE804B044648B9998800
:1095C0000498FFF767FD04460A2CD4D141F61D54D8
:1095D000B0E608223146184604F032FEF4E7002EC9
:1095E0007FF4C6AE764BDA7CB2B1DE741A78013AFB
:1095F000062A3FF69EAE01A151F822F0A99602007C
:10960000D5960200E9960200EF960200339302001D
:10961000F5960200079702001A78072AE6D801A1FA
:1096200051F822F045960200ED950200ED950200FA
:109630007196020085960200A5960200A59602008A
:109640006D9602001A895F485F4C01321A81002230
:109650005A80DA74142505FB02F10132095DB1FA72
:1096600081F14909092A00F8011BF4D1012207E020
:10967000564859688288498803320A448280022207
:109680001A70B3E750485A885049142505FB020266
:109690000C685068086088885460108102228A80B3
:1096A0000622EDE70722EBE7464A474C0020142547
:1096B00012F8011B1FFA86FC79B105FB064102F87E
:1096C000010CD1F80CE0BEF1000F06D1097C21B1EC
:1096D000A3F802C0FFF7F8FD4CE70136092EE7D1E9
:1096E00000221A705A806DE6FFF7F0FC42E7FFF7A0
:1096F0008DFC3FE7344A5B88142101FB0323586843
:10970000FFF7B8FC36E700225A60FFF79FFC31E70D
:1097100000238DF80C300DE001228DF80C201A8901
:10972000ADF818209A88ADF81A20DB68059300235D
:109730008DF81C3003A8FFF72FFC00232448C8F83D
:109740000030494602F0D9FB224B1B6823B922495D
:1097500040F27A20FDF7BAF81E48012100F04DFED4
:1097600000283FF4E0AE0026C8E502228DF80C2068
:109770001A89ADF818209A88ADF81A20DA6805928F
:109780009B7D9A1F53425341D2E703228DF80C2050
:10979000DA88ADF818201A89ADF81A20DB6805932D
:1097A000C8E704228DF80C20DB88ADF818300023C0
:1097B000ADF81A30F3E70523ABE700BF44AD002056
:1097C00050AC00205AAC002070AC002038AD002016
:1097D00024AD002034AD0020705603004068FFF730
:1097E00085BD000008B50548012100F0EEFD18B95F
:1097F000BDE80840FFF77ABD08BD00BF34AD0020CA
:109800002DE9F3419846344B1B7806460D46002B54
:1098100059D0002959D009884FF6FF73994256D084
:109820006B88002B53D06B689B0752D14AB92F89A4
:109830000DF102013846FFF7BFFB30B102B0BDE8C1
:10984000F08113885788ADF8023001A8FFF75AFC61
:10985000044658B9BDF80230204A142101FB032305
:1098600058890338C01B58810820E7E780F800803A
:1098700000238375BDF8023083826B680361012188
:10988000174800F0AEFDE0602B8823816B88A38031
:10989000B8F1030F04BF0423A375E78004BF336846
:1098A000A36100250F48658101A902F0EBFA36B1EA
:1098B0007560E36833600C4BB5721B893381FFF729
:1098C00091FF0020BAE70220B8E70520B6E70420A0
:1098D000B4E70320B2E700BF48AC002070AC002022
:1098E00068AC002024AD002050AC002073B50D46BC
:1098F0000446C8B1C1B10DF10601FFF751FCA8B192
:109900000B4BBDF806006668142202FB00300121F3
:109910000C3000F066FD2E6063680C336B60012331
:10992000A372002002B070BD0520FBE70A20F9E712
:1099300070AC002013B50446A8B10DF10601FFF785
:109940002FFC90B10B4ABDF80630142101FB032314
:10995000DA6862B1A27A52B1DA680020013ADA60BC
:10996000A07202B010BD0520FBE70A20F9E706202F
:10997000F7E700BF70AC002002230022FFF740BFD2
:1099800018B103230022FFF73BBF052070470000FA
:1099900013B5104B1B780446ABB14FF6FF739842DA
:1099A00013D001A8FFF7AEFB88B105230370012394
:1099B0000371C48001A9084802F064FAFFF712FF9E
:1099C000002002B010BD0220FBE70420F9E70820C8
:1099D000F7E700BF48AC002024AD002007B5ADF884
:1099E0000600ADF804100DF1060001A9FFF728FCF0
:1099F00003B05DF804FB07B51346ADF806000A4650
:109A000000200DF10601FFF71BFC03B05DF804FB1D
:109A100007B51346ADF806000A460DF10600002111
:109A2000FFF70EFC03B05DF804FB20B119B1036829
:109A30000B6000207047052070470369C1688B42A6
:109A40009DBF8268D21802F1FF3203F1FF3394BF49
:109A5000501A581A70472DE9F843D0E90294054688
:109A6000A9EB04084068904520440F46144404D9EB
:109A700004F04CFBEC60BDE8F8834246A4EB09041B
:109A800004F044FB6868224607EB0801F0E72DE983
:109A9000F843C5680646894617464FF00008346902
:109AA000B3687068A54228BFE418013C621B5C1BC8
:109AB000BC4228BF3C46944228BF1446494628442D
:109AC000224604F023FBB3682544AB4208BF0025BF
:109AD0003F1BA044A144F560E1D14046BDE8F883B6
:109AE00010B5114C114AA2610223C4E90433104B92
:109AF000E361A2644FF400730E4A0F492362E264EB
:109B000000231022E01DA3626362E362A365636524
:109B1000E365226504F0D0FC0849204604F0CCFC43
:109B20002023A37110BD00BF68B80020CC560300ED
:109B30005CAD00204CAD0020D5560300D956030083
:109B4000F8B5184C182300FB033503FB00402544EF
:109B5000C46A012C0F4616460FD0022C1AD0F4B955
:109B60002846FFF76AFF864205D83246394628461E
:109B7000FFF771FF34462046F8BD2846FFF75DFF2A
:109B80008642344628BF0446224639462846FFF717
:109B900062FFF0E72846BDE8F840FFF778BF0024F1
:109BA000E9E700BF68B8002073B50E4B1B78044688
:109BB0000D4616460BB9FFF793FF00230DF1070082
:109BC0008DF8073000F0D2FA324629462046FFF7DA
:109BD000B7FF04469DF8070000F0F8FA204602B0EF
:109BE00070BD00BF68B8002010B511461C461A466B
:109BF0000020FFF7D9FF204610BD00B583B00290CA
:109C00000091019244F2010071466A46FCF71CFC87
:109C100003B000BD094A537891780133DBB2994211
:109C200008BF0023117899421FBF03705078182392
:109C300003FB002014BF0430002070475CAF0020FD
:109C400073B5054600240DF107000E468DF8074058
:109C500000F08CFA0DF10600FFF7DCFF90B1067002
:109C6000094B9DF8062045605A709DF8070000F0EA
:109C7000ADFA24B9054B4FF48012C3F800212046F9
:109C800002B070BD0424F0E75CAF002000E100E00A
:109C9000024B4FF43C6043F001031847E0560300C9
:109CA000F8B51F491F4B0025C1F84051C1F8445178
:109CB000C1F84851C1F84C51C1F80051C1F80451E4
:109CC0001B684BB3D1F8044517490968641A24F09E
:109CD0007F442F461A68A24209D8A41A15441A7C58
:109CE000DE691AB1D3E905201F749047AEB90F4A57
:109CF0000F4B11781B788B4205D10133DBB2022B5D
:109D000008BF0023137012780A4B43F822500A4B05
:109D10004FF48012C3F80021F8BD3346DAE700BFE4
:109D2000001001407CB0002078B0002075B0002009
:109D300074B000206CB0002000E100E02DE9F04F8D
:109D4000A14AA24913780978A14D994285B03CD027
:109D50000133DBB2022B08BF002313709D49127838
:109D60009D4B0F6853F822003B1823F07F430022DD
:109D70000B602B6816461446944613B942B12B600B
:109D800006E0196881420ED902B12B60091A1960E8
:109D900001272B68DFF848A201934FF00008BEB9F5
:109DA000DFF844B262E0401A0C44D968D3F81CE0F2
:109DB000C3F800C031B13A1922F07F42C3E9012152
:109DC000DE611E4673460122D7E700263746E0E7EC
:109DD0003446F6697F4A63681268DFF810C2A068EB
:109DE000991A21F07F41614500F2A8800144216069
:109DF000012222742A680023C4E90133E361002AA6
:109E000040F0A5802C60CAE79BF802105A1CD2B221
:109E100091428BF8002004BF00228BF8002018220A
:109E200002FB03B32A6819799C68022977D00329B9
:109E300000F08180012919D1207CB8B9D96861600E
:109E40001A69A2605A69E2609B69A361634B1B783F
:109E5000002B18BF01466160BCE78C4200F0918086
:109E60008946C9690029F8D1002323749BF8003082
:109E70009BF801209A42C7D12B68B8F1000F04D19A
:109E8000019A9A4201D1002F43D0002B41D0D3F840
:109E900000A0534D4F4BD5F804751C68DFF8508176
:109EA0003E1B98F8003026F07F4603369BB94FF4EE
:109EB0008033C5F84433C5F804334A4B4FF40032BD
:109EC0004FF00109C3F880211A60C5F80090FFF730
:109ED000DFFE88F80090B2452CBF5444A41924F04A
:109EE0007F44C5F84045D5F80435DB1B23F07F439C
:109EF000E41B033324F07F44A3420AD9D5F8043588
:109F0000C5F84035FFF7C4FE364B4FF40032C3F8B6
:109F10000021324B00221A7005B0BDE8F08F1146C7
:109F200091469FE71174D2690123002AFAD1002BD0
:109F30009CD02A609AE700231946F6E7D31A23F04B
:109F40007F43834234BFC31A0023236050E7216854
:109F50001368994213D8591A1160E26152E7091A3D
:109F6000D8691A4638B1034618688842F7D3401AB0
:109F70001860184613462160E061DC610FE7134664
:109F8000F2E74C4511D1D3692B6073B9DFF844E097
:109F90000120CDE90212CAF80800CEF800300F4BBC
:109FA0001870FFF775FEDDE902120B68C969C9F880
:109FB0001C1011B1086803440B602B68934218BF52
:109FC0004FF0010850E700BF74B0002075B00020CA
:109FD0007CB0002078B000206CB0002068B0002079
:109FE0000010014000E100E05CAF0020FEFF7F00B8
:109FF00069B00020F8B5194E194D1A4F4FF40033CF
:10A00000C6F8803001244FF48033C5F84833C5F8D2
:10A0100008336C60FFF73CFEAC6000243C60FFF747
:10A0200037FE114B1C70114B0B221C809A70104B89
:10A030001C60104B1C70104B4FF480121C70E023FE
:10A04000C6F8802186F814333260C5F8084586F8D2
:10A050001133D5F804353B602046F8BD00E100E03F
:10A060000010014078B0002069B000205CAF0020F3
:10A070007CB0002074B0002075B00020074B9B78A6
:10A080004BB132B128B10368187C20B959745A61B8
:10A090007047072070470820704700BF5CAF002062
:10A0A0002DE9F743DFF8848098F8023005460E4624
:10A0B0001746ABB3A0B3042930D9436983B3437CBB
:10A0C0000024012B0DF107000CBF8946A1468DF835
:10A0D000074000F04BF80DF10600FFF79BFDD8B1EB
:10A0E000012303700F4B4560D3F80435C0E9049792
:10A0F000C0E902369DF8063088F801309DF8070067
:10A1000000F064F824B9084B4FF48012C3F8002122
:10A11000204603B0BDE8F0830424EFE70724F7E707
:10A120000824F5E70010014000E100E05CAF0020EA
:10A13000064A92783AB130B1426922B100220274E3
:10A140000221FFF77DBD0820704700BF5CAF0020F3
:10A15000EFF30583C3F308032BB9EFF31480C04377
:10A1600000F00100704701207047000070B5044600
:10A17000FFF7EEFF012803D010494320FCF7A6FBB0
:10A18000EFF3108672B60E4A9068012398B9936077
:10A190000C4B0D4DD3F8801029401160C3F880504E
:10A1A000D3F8841051604FF0FF32C3F88420207040
:10A1B00006B962B670BD2370FAE700BFE656030029
:10A1C000E0B8002000E100E0FC06FFBD10B5044649
:10A1D000FFF7BEFF012803D009495120FCF776FBA9
:10A1E000084B9A685AB154B9EFF3108172B6064A17
:10A1F00018681060586850609C6001B962B610BD64
:10A20000E6560300E0B8002000E100E0024B1B68C6
:10A210000021986804F078B8A89900201EF0040F77
:10A220001CBFEFF309800AE0EFF308800549064AF6
:10A23000884201D8904202D88D464FF00000034B6F
:10A24000184700000000012000E0002051A2020099
:10A250002DE9F347054600F0BBFD00F01BFC00288C
:10A26000FBD12F4C2F48304B241AE40824049F6A5A
:10A2700044F00104002D4ED0AA692C49204600F07C
:10A2800079FDEB680193AB68294900932046D5E935
:10A29000002300F08EFDEB6900932649D5E90423E5
:10A2A000204600F07AFD204BDB6A980703D522494F
:10A2B000204600F05BFDDFF89490DFF894A00026C4
:10A2C0004FF0010808FA06F33B4206D059F8262061
:10A2D0001AB15146204600F04DFD01361A2EF1D13B
:10A2E000390605D5104B15495A6B204600F042FD42
:10A2F0003A0405D50C4B12499A6B204600F03AFD02
:10A30000104B1B68DB0700D500BE2846FCF732F96E
:10A3100002B0BDE8F0870C49204600F027FDC2E7F7
:10A32000C87303004873030000ED00E03B570300CF
:10A330005057030085570300E05703002F580300D0
:10A340004F580300F0ED00E0AD5703002C5D030013
:10A350002458030010B5034653E8000F0A4643E8AB
:10A36000002494F0000FF7D110BD10B5034653E858
:10A37000000F40EA010243E8002494F0000FF6D1F8
:10A3800010BD10B5034653E8002F42EA010043E830
:10A39000000494F0000FF6D110BD10B5034653E849
:10A3A000000F00EA010243E8002494F0000FF6D108
:10A3B00010BD10B5034653E8002F02EA010043E840
:10A3C000000494F0000FF6D110BD10B5034653E819
:10A3D000000F00EB010243E8002494F0000FF6D1D7
:10A3E00010BD10B5034653E8002F02EB010043E80F
:10A3F000000494F0000FF6D110BD10B5034653E8E9
:10A40000002FA2EB010043E8000494F0000FF6D106
:10A4100010BD0121FFF7B5BF0021FFF7BEBF00004F
:10A4200037B5044620B914494FF49270FCF74EFA40
:10A4300000250DF107008DF80750FFF797FE226801
:10A44000616813688B4210D9591E116013F8015CC2
:10A45000228AE36802FB05352268A36811685B1A4B
:10A460001179DBB2994238BF13719DF80700FFF7ED
:10A47000ADFE284603B030BD945D030037B50C46F1
:10A48000054620B9104940F24710FCF71FFA24B9DD
:10A490000D494FF4A470FCF719FA00230DF10700E1
:10A4A0008DF80730FFF762FE2A681368591C1160A7
:10A4B000E968641A298AB4FBF1F41C709DF807005E
:10A4C000FFF784FE03B030BD945D030070B51B4BF5
:10A4D0006A469A4206460D4605D3FCF719FD78B93F
:10A4E0004FF4054070BD164B16481749C01AC008F6
:10A4F000000440F0010000F039FC48F21950F1E787
:10A50000124C236823B1124B1A68124B9A420FD097
:10A5100086B97DB910481149206001F0EBFD002893
:10A52000E0D10B4B0B4A1A6023680D4A1A60D9E739
:10A530000020D7E748F21750D4E700BF00E0002022
:10A5400048730300A8730300E45D03008CB000208F
:10A5500084B000206572E54B80B0002088B00020F8
:10A560006169614D094B0A4A196891420AD1094A49
:10A570001068094A0168914204D1002202601A6001
:10A5800001F0BBBD48F20250704700BF84B000200C
:10A590006572E54B8CB000206169614D38B5074CA0
:10A5A000051E04F1080318BF1C4623682BB11A6866
:10A5B00022605B6828469847F7E738BD98B00020CE
:10A5C00020B9054B01225A70FFF7E8BF012802D1DC
:10A5D000014A9070F8E7704790B0002020B9034B13
:10A5E00001225A70FFF7DABF704700BF90B0002019
:10A5F00038B50B4C237883B90A486360A3602361A4
:10A60000E36000F0DFFD054603F022FA08B900F030
:10A61000EDFD01232370284638BD8525FBE700BFEB
:10A6200090B00020C1A5020013B5164C237823B9C1
:10A6300015494FF48570FCF749F9E36823B91249CD
:10A6400040F20B10FCF742F900230DF107008DF8E2
:10A650000730FFF78BFDE368013BE360E36853B924
:10A6600003F0F6F918B108497920FCF72FF900F04A
:10A67000DBFD0023A3709DF80700FFF7A7FD02B0E4
:10A6800010BD00BF90B00020FD5D0300012813B590
:10A6900008D003281CD018B9144B0122C3F880201D
:10A6A00002B010BD124C00230DF107008DF80730E9
:10A6B000FFF75CFD23780BB9FFF79AFFE3689DF87D
:10A6C00007000133E3600123A370FFF77FFDE7E795
:10A6D000074B1B7823B9074940F24520FCF7F6F8F1
:10A6E00000F084FDFFF7A0FFDAE700BF00E100E023
:10A6F00090B00020FD5D03002DE9F34188B93D4B8A
:10A700003D483E4AC01AC0080E243D4B0094000448
:10A710003C4940F0010000F040FB204602B0BDE89B
:10A72000F0814AB9334B3448374AC01AC0080E2466
:10A73000334B00940004EBE7D0F800E0BEF1000FCB
:10A7400009D12C4B2C48314AC01AC00808242C4B84
:10A7500000940004DCE74BB9264B27482C4AC01A6A
:10A76000C0080924264B00940004D1E74568D5F8B9
:10A770000480B3FBF8F508FB15354DB11D4B1E48A1
:10A78000244AC01AC00809241D4B00940004BFE7E6
:10A790008D0709D0174B18481F4AC01AC00810244B
:10A7A000174B00940004B3E712F0030F09D0114BCC
:10A7B00011481A4AC01AC0081024114B0094000412
:10A7C000A6E7C568A9420BD34D1EEC180569AC423B
:10A7D00006D8DEF80C40A44602B0BDE8F041604760
:10A7E000044B05480E4AC01AC0081024044B0094BC
:10A7F00000048DE748730300D8730300525E030022
:10A80000E85F0300575E0300D45E0300805E030030
:10A81000935E0300DA5E0300045F03001C5F030025
:10A820003F5F0300F7B580B92A4B2B482B4AC01A6B
:10A83000C0080E242A4B009400042A4940F001006D
:10A8400000F0ABFA204603B0F0BDD0F800C0BCF178
:10A85000000F09D11F4B2048234AC01AC008082402
:10A860001F4B00940004E8E74AB91A4B1A481F4AE4
:10A87000C01AC00809241A4B00940004DDE7476899
:10A88000D7F800E00EF1FF370F4209D0114B124804
:10A89000174AC01AC0081024114B00940004CCE7DA
:10A8A000C768B9420CD304694D1E0EFB0255A54280
:10A8B00006D8DCF81040A44603B0BDE8F04060477D
:10A8C000044B05480B4AC01AC0081024044B0094DE
:10A8D0000004B2E748730300D8730300525E03001C
:10A8E000FB5F0300575E0300805E0300935E03007E
:10A8F000665F03008C5F0300037813F0040216D038
:10A9000003F00303012B03D0022B09D00120704771
:10A910000A6800880232C0F3831002440A60F5E737
:10A920000B684288023303EB92130B60EEE710468C
:10A93000704700002DE9F04F89B000230446861CC3
:10A940000DF10F000F4615468DF80F30FFF70EFC86
:10A95000494801683960D0E90132134401335B1A78
:10A96000824600F21C4700F5836900F21448B342A6
:10A970001CD30020002D7BD004F00F039B0143F07B
:10A98000050363F30F00DAF80020DAF8083013400B
:10A99000033316444AF823009DF80F00CAF80060FC
:10A9A000FFF714FC012009B0BDE8F08F0121384603
:10A9B000FFF717FD4846FFF72CFD4046FFF729FD3E
:10A9C000DAF80400DAF808B0049000EA0B0003306B
:10A9D0000AEB800004A9FFF78FFF049B0246F8B939
:10A9E0000BEA03010AEB810103F1020CC868059030
:10A9F000013303EA0B0B0AEB8B0B00F00300012879
:10AA0000DBF80C10CDF810C02AD002280BD01B495F
:10AA100001924FF4BF70FBF759FF019A93460CE087
:10AA20000BEA0300D3E7BDF81630C3F389130333F1
:10AA30004FEA114B0CEB930304934046FFF7ECFCF9
:10AA400010B1049BCAF8043059463846FFF7C9FCD8
:10AA5000DAE901231344DAF8002001339B1A86E770
:10AA6000BDF81430C3F383134FEA114B6344E3E79B
:10AA7000A40544F0060086E774B100200E600300D0
:10AA8000034BD3E90030C31A58425841704700BF06
:10AA900074B100202DE9F04387B0FFF7F1FF0646BF
:10AAA000002840F0F9807D4DC5F81804BFF34F8FA2
:10AAB0006B68AC6802932340033305EB830002A963
:10AAC000FFF71AFF029B18B1D5F81824002A5FD0AF
:10AAD00004EA0302991C013305EB8202234005EBD3
:10AAE0008303D268DB68049302F00303022B039212
:10AAF000029160D1BDF80E306948C3F38917502F19
:10AB0000B84628BF4FF0500868F38F1308F10801CA
:10AB1000ADF80E3000F0DCF90646002800F0A78002
:10AB200000F005FA0023082203A9304600F012FACB
:10AB3000029924EA01020132B8EB820F4FEA820344
:10AB400032D95FFA88F85BB32140DCB2A8EB040885
:10AB500003315FFA88F9A046524C05EB81010823C6
:10AB60004246304600F0F6F934B108F108034A468F
:10AB70002146304600F0EEF9029B033703EB9707BE
:10AB80000297D5F81834002B49D1D5F8104459E074
:10AB90002A689A428FD86A60304607B0BDE8F083D1
:10ABA00040491C469946DAE70C40E11C082342461E
:10ABB00005EB8101DDE7012B59D1BDF80C30384898
:10ABC000C3F38311062928BF062161F389130231DB
:10ABD0008900ADF80C3000F07BF90646002846D01D
:10ABE00000F0A5F90023082203A9304600F0B2F9CD
:10ABF0000027BDF80C20C2F38312BB00974203F17B
:10AC00000803BED202994A1C21400331029205EB8F
:10AC100081010422304600F09DF90137E9E7304612
:10AC200000F089F9FFF72CFF80F00100C6B2B3E70E
:10AC3000E3685B7923B1236831461B682046984757
:10AC4000E3681C68002CF3D1304600F074F90DF174
:10AC500007008DF80740FFF789FAD5F818340BB9CB
:10AC6000029B6B609DF80700FFF7B0FADAE7D5F8B2
:10AC7000104454B90C4B0D480D49C01AC0080004CB
:10AC800040F0020000F072F8CCE7236820469B6891
:10AC90009847E3681C68ECE700267DE774B1002064
:10ACA0004874030080B1002048730300A8730300B8
:10ACB000656003002DE9F74F274D04460F46914686
:10ACC00001A901221846D5F808A09846FFF732FEE0
:10ACD00078B3019E0023B01C434503EB000132D141
:10ACE0001E480021FFF736FB80F3100B1C4B1D4A5A
:10ACF0004FEA14499B1AB9EBD30F04D31A4940F217
:10AD0000A310FBF7E3FD731C03EA0A03E40005EB61
:10AD1000830304F0380449EA0B4006EA0A0644F0CB
:10AD20000104D860033644EA881343EA872345F8D0
:10AD3000263095F820341BB1FFF7ACFE0028FBD17C
:10AD400003B0BDE8F08F0AEA010105EB810159F873
:10AD50002320CA600133BFE774B1002090B5002002
:10AD600048740300487303000E60030000231A4672
:10AD7000FFF7A0BF07B50123019201AAFFF79AFFD1
:10AD800003B05DF804FB07B5CDE9002302236A4652
:10AD9000FFF790FF03B05DF804FB1FB5CDE9012379
:10ADA000069B039301AA0323FFF784FF05B05DF818
:10ADB00004FB1FB5CDE90023069B0293079B039379
:10ADC0006A460423FFF776FF05B05DF804FB000038
:10ADD00038B5094A0123D2F8104482F820341D46C0
:10ADE00004B938BDE3685D71236820465B68984705
:10ADF000E3681C68F4E700BF74B100202DE9F74F49
:10AE000099469DF83030009388469346064618B917
:10AE10002349B620FBF75AFDF18872794A43043A78
:10AE20004A4505D81E490192C420FBF74FFD019AFF
:10AE3000DBF80070B6F806A007EB0901914209F1B2
:10AE4000040488BFA2EB0907B4FBFAF5CBF8007045
:10AE50000AFB154445B9AAEB040BBB4528BFBB460A
:10AE60002FB903B0BDE8F08F3668013DF2E7009BD3
:10AE7000043408EB050034445A466BB12146A7EB75
:10AE80000B0703F043F9BA455D443668D3464FF0EB
:10AE9000000428BFBB46E3E701462046EFE700BFBA
:10AEA0007A600300F8B546790146721E0546002314
:10AEB00093422D6803D30024A64202D8F8BD013383
:10AEC000F6E70F682846FFF7D9FA01343946F3E769
:10AED0002DE9F843CD1C068A0746FFF7A1FA043E88
:10AEE00035440446B5FBF6F5F0B14FF48073EDB28E
:10AEF0008380C680013D076081464FF00008A84569
:10AF000012D23846FFF78CFA064648B1637901330E
:10AF1000637108F10108C9F8000007608146EEE797
:10AF20002046FFF7BFFF34462046BDE8F8830121E5
:10AF30000430FFF756BA10B5012104460430FFF77C
:10AF40005CFA10F0FF0F04D12046BDE81040FFF777
:10AF5000A9BF10BD1FB5144603920022009203AA98
:10AF6000FFF74CFF039BA34203D00349F620FBF7F6
:10AF7000ADFC04B010BD00BF7A600300064B10B5F5
:10AF800000241C70054B1C60BFF35F8F044905480B
:10AF900000F0BCF8204610BDA0B50020A4B50020EC
:10AFA000D460030098B50020026813685268934289
:10AFB00091BFD01A80680130801888BFC01A7047CE
:10AFC00038B50C46054618B904497720FBF77EFCD6
:10AFD000AB68A3428CBF601C002038BDE06003005A
:10AFE00038B5044618B907498A20FBF76FFC236877
:10AFF00020461D685968FFF7E3FF431B584258413C
:10B0000038BD00BFE06003002DE9F3410D46044662
:10B0100018B92F499520FBF759FC1DB92C499620EA
:10B02000FBF754FC00230DF107008DF80730FFF704
:10B030009DF82046FFF7D4FF074610B1237C002B74
:10B040003DD1D4F800802046D8F80460D8F8041028
:10B05000FFF7B6FFC8F804002FB12768204639680B
:10B06000FFF7AEFF3860E2686068531E072B20D8F8
:10B07000DFE803F004101F141F1F1F182B788355DF
:10B080002046FFF791FF23689A68824200D29860B9
:10B09000002415E02B8820F81630F1E72B6840F8E3
:10B0A0002630EDE7D5E9002300EBC600C0E9002318
:10B0B000E6E7294606FB020003F028F8E0E704244F
:10B0C0009DF80700FFF782F8204602B0BDE8F08146
:10B0D000E060030037B5044620B90B4940F2EF1099
:10B0E000FBF7F4FB00250DF107008DF80750FFF783
:10B0F0003DF80C222946206803F0A2F89DF80700CD
:10B10000FFF764F803B030BDE060030038B50D46CA
:10B11000044618B908495020FBF7D8FB1DB9064969
:10B120005120FBF7D3FB25602B6863606A6893426C
:10B1300004BF0023636038BD2E61030010B50446D0
:10B1400018B90B496320FBF7C1FB23681BB90849F9
:10B150006420FBF7BBFB636843B1226891680B4432
:10B1600063605268934204BF0023636010BD00BF58
:10B170002E61030010B50D49A1F59472914201D8DA
:10B1800000200FE08C1AE30F03EBE4035B1002EBEB
:10B19000C30452F83330834205D802D204F10802C6
:10B1A000ECE7606810BD2146E8E700BF8C6603004D
:10B1B00008B5FFF7DFFF024B002808BF184608BD9F
:10B1C0005165030010B5044618B90649A020FBF7E5
:10B1D0007DFB054A107918B901211460918010BDDA
:10B1E0008520FCE78C660300A8B5002008B50B4B52
:10B1F0001B791BB90A49B920FBF768FB094B1A6890
:10B20000D2075FBFE02283F8002301221A604FF0CB
:10B2100080430122C3F8182508BD00BFA8B500204F
:10B220008C66030000E100E008B5084B1B791BB9F0
:10B230000749F320FBF74AFB064B01221A604FF047
:10B240008042D2F81834DB03FBD408BDA8B5002037
:10B250008C6603000C00004007B5154B1A687AB1E4
:10B2600000221A601B680093009B4FF0804301226C
:10B27000C3F808230F4B587910B95A711B689847C7
:10B280000D4B1A6882B100221A601B680193019B62
:10B290004FF080430222C3F80823064B1B680120AD
:10B2A00003B05DF804EB184703B05DF804FB00BF82
:10B2B00000010040A8B500200401004000F18040DA
:10B2C00000F5C040002382B0036003680193019B36
:10B2D00002B07047054B4FF0FF32072843F820209B
:10B2E00084BFC01880F84820704700BFB0B5002068
:10B2F00002494FF4F370FBF7E9BA00BFDF660300C1
:10B300001F2838B504460D4601D9FFF7F1FFA0000C
:10B3100000F1A040D0F8003723F44033C0F80037E4
:10B32000D0F8003743EA0543C0F8003738BD0000C5
:10B3300010B5174C94F8583043BB04F1300320216A
:10B34000FF22013911F0FF0103F8012BF9D1C8B236
:10B35000FFF7C0FF01310C29F9D1042200210D486B
:10B3600002F06EFF0C4BE02283F8062340221A60A5
:10B370004FF4BE70FFF7A2FF084B4FF00042C3F836
:10B380000423012384F85830002010BD0820FCE776
:10B39000B0B5002004B6002000E100E000600040ED
:10B3A000034B93F85800003818BF0120704700BFC6
:10B3B000B0B500201F2870B504460D4604D9414998
:10B3C0004FF49870FBF782FA3F4E96F85830012BF5
:10B3D00004D03C4940F23110FBF778FA25B93949DD
:10B3E0004FF49970FBF772FA331993F93020013258
:10B3F00066D1AA78002A55D0334B002253F8041B9B
:10B4000001314AD1331983F83020002346F8223025
:10B41000920002F1804202F5C0422B78D2F810056A
:10B42000697820F498101B04090520F4F85001F401
:10B43000801103F44033C2F810050B432102D2F807
:10B44000100501F4F8510B430343C2F810356B7833
:10B45000012B4FF0010529D11F2C01D9FFF748FF1F
:10B460004FF0A043A540C3F808551F2C01D9FFF7A2
:10B470003FFF04F5E0724FF0A043032143F8221090
:10B4800024FA01F3114A0120D15C04F0070400FA08
:10B4900004F40C43D454002003E00132082AADD157
:10B4A000042070BDFE2283F83020D0E71F2C01D984
:10B4B000FFF71EFF4FF0A043A540C3F80C55D4E79B
:10B4C0000820EEE722670300B0B5002004B6002094
:10B4D0001F2838B5044604D912494FF4BE70FBF753
:10B4E000F5F9114D2A1992F93020013204D10D4994
:10B4F00040F27D10FBF7EAF92B1993F83030072B57
:10B5000004D808494FF4BF70FBF7E0F91F2C01D9AC
:10B51000FFF7EEFE01204FF0A04300FA04F4C3F859
:10B52000084538BD22670300B0B500201F2838B594
:10B53000044604D912494FF4C370FBF7C7F9114D03
:10B540002A1992F93020013204D10D4940F28710B6
:10B55000FBF7BCF92B1993F83030072B04D80849B6
:10B560004FF4C470FBF7B2F91F2C01D9FFF7C0FEEE
:10B5700001204FF0A04300FA04F4C3F80C4538BD95
:10B5800022670300B0B500202DE9F04F87B00024FA
:10B590005F4D03944FF48072012102F1804303F563
:10B5A000C04390B21B68012B06D1D5F804330B427F
:10B5B00002D0FFF783FE0C430432B2F5907F4FEACE
:10B5C0004101EAD1534B1B68012B0AD14FF4BE70E5
:10B5D000FFF774FE4FF0A04344F00044D3F8103559
:10B5E000039314F0FF0F1AD04B4F0025012634426D
:10B5F00010D0AB0003F1804303F5C043D3F810052E
:10B60000D3F8101557F8253023B1C1F30141C0F329
:10B61000042098470135082D4FEA4606E7D1002C53
:10B620006EDA00214FF0FF33CDE904133A4FDFF813
:10B63000EC800026354618F9013B5A1C55D0C3F35F
:10B64000C20201215FFA83FB03F03F0903F0070305
:10B6500001FA03F406AB991811F8043C234244D0D4
:10B6600007EB09034FEA9B1B93F9303057F823A0EF
:10B67000BAF1000F0BD1BBF1030F36D10DF1100E53
:10B680001EF802C04CEA040C0EF802C002E0BBF146
:10B69000030FF3D0B9F11F0F03D90191FFF728FE73
:10B6A000019911F80C1C09F5E0724FF0A0432142FA
:10B6B00053F82220C2F3014206D0022A15D1BBF171
:10B6C000030F0CD1594605E0032A0ED1BBF1030F3D
:10B6D00005D102214846FFF713FE0135EDB2BAF15C
:10B6E000000F02D059464846D0470136042EA2D159
:10B6F00035B14FF0A043039AD3F81035934202D1ED
:10B7000007B0BDE8F08F0393049B05938FE700BF5C
:10B71000006000407C610040B0B5002000B6002011
:10B7200010B5054C22681AB904495120FBF7CEF830
:10B730002368BDE8104018470CB600207B67030063
:10B740000023435082B043580193019B02B07047DD
:10B7500070B5D0F8103105460C4653B14FF48871DE
:10B76000FFF7EEFF63795A0703D523680BB1012079
:10B770009847D5F814315BB14FF48A712846FFF72A
:10B78000DFFF63791B0703D523680BB102209847BD
:10B79000D5F81C315BB128464FF48E71FFF7D0FF0E
:10B7A000607910F0100002D1236803B19847D5F8F2
:10B7B000043163B14FF482712846FFF7C1FF0123C2
:10B7C000237123681BB1BDE870400320184770BD8A
:10B7D00001490248FFF7BCBF14B6002000C0014079
:10B7E00001490248FFF7B4BF1CB600200010024018
:10B7F00001490248FFF7ACBF24B6002000200240F8
:10B8000000F1804000F5E040002382B0036003684F
:10B810000193019B02B07047F0B5504B504C1B6830
:10B8200085B0002B3DD04FF4827094F82E20FFF7A6
:10B83000E7FF2AB394F82F3013BB4A4B1B68002B49
:10B8400033D04FF48070FFF7DBFF638B94F82D103B
:10B850008B424FD922895B1A9BB292B26383D31A6F
:10B86000626802EB4303404AC2F82C36C2F8301635
:10B870004FF48270FFF7C4FF3C4B01221A6014E0C2
:10B88000636802932389ADF80C30E36800218DF8DA
:10B89000041023BB2374236801A89847002384F86D
:10B8A0002F3094F82E30002BC7D1314B1B685BB181
:10B8B0004FF48870FFF7A4FF0023237402238DF850
:10B8C000043001A8236898472A4B1B68EBB14FF45A
:10B8D0008A70FFF795FF0023237405B0F0BD208B1D
:10B8E000608363602081E160002AD4D11E4B012275
:10B8F0001A60D0E7BCD1E368012284F82F2013B18D
:10B9000000226283AFE76383B2E766694FF00047C6
:10B910000125002EE1D0B6FA86F227FA02F346326C
:10B92000920026EA030602F1804303F5E0431B6818
:10B93000002BEED01046FFF763FFA2F58C72D30800
:10B9400082F00402C2F380028DF808308DF80450B2
:10B9500023688DF8092001A89847DAE704710040B0
:10B960002CB60020007100400070004004700040C0
:10B97000107100401471004002494FF4F370FAF75F
:10B98000A5BF00BFDF6603001F2810B5044601D91C
:10B99000FFF7F2FF01204FF0A04300FA04F4C3F8D0
:10B9A0000C4510BD1F2810B5044601D9FFF7E4FF70
:10B9B00001204FF0A04300FA04F4C3F8084510BD7D
:10B9C00013B54FF04023D3F818310BB3114B124C81
:10B9D00000221A601B680193019B236823B90F4959
:10B9E0004FF42770FAF772FFE07FFF2803D0A37FA0
:10B9F0005BB1FFF7C9FF002363772372D4E90031FD
:10BA0000074802B0BDE810401847FFF7CBFFF2E748
:10BA100002B010BD184100405CB60020D86703009A
:10BA200064B600202DE9F743002406460F4600F5D2
:10BA3000A0754FF48038A146A30003F5A07398B217
:10BA40002B686BB1D6F8043308FA04F21A4207D017
:10BA5000C5F800902B680193019BD7E90031984706
:10BA60000134042C05F10405E6D103B0BDE8F083F0
:10BA700001490248FFF7D6BF80B600200080004091
:10BA800001490248FFF7CEBF8CB60020009000406D
:10BA90000023435082B043580193019B02B070478A
:10BAA000F0B54F4C236887B023B94E4940F245208A
:10BAB000FAF70CFF4C48D0F8243105469BB14FF4FF
:10BAC0009271FFF7E5FFD0F8043163B9A368C0F8BD
:10BAD00008330223A360A368C0F804330123036280
