:020000022000DC
:10600000000001201D96020045960200456B02002B
:10601000499602004B9602004D96020000000000D7
:106020000000000000000000000000004F96020089
:10603000519602000000000053960200559602009F
:10604000C589020057960200758602007188020019
:106050005796020057960200DD840200AD860200CA
:106060000D880200579602005796020057960200CC
:106070005796020057960200579602005796020064
:106080005796020075660200579602005796020066
:1060900011670200579602005181020057960200D4
:1060A0005796020057960200579602005796020034
:1060B0005796020057960200000000000000000002
:1060C0005796020057960200579602005796020014
:1060D00057960200579602005796020000000000F3
:1060E00000000000000000000000000000000000B0
:1060F00000000000000000000000000000000000A0
:10610000000000000000000000000000000000008F
:10611000000000000000000000000000000000007F
:10612000000000000000000000000000000000006F
:10613000000000000000000000000000000000005F
:10614000000000000000000000000000000000004F
:10615000000000000000000000000000000000003F
:10616000000000000000000000000000000000002F
:10617000000000000000000000000000000000001F
:10618000000000000000000000000000000000000F
:1061900000000000000000000000000000000000FF
:1061A00000000000000000000000000000000000EF
:1061B00000000000000000000000000000000000DF
:1061C00000000000000000000000000000000000CF
:1061D00000000000000000000000000000000000BF
:1061E00000000000000000000000000000000000AF
:1061F000000000000000000000000000000000009F
:1062000010B5054C237833B9044B13B10448AFF3F0
:1062100000800123237010BD88A200200000000030
:10622000442C030008B5034B1BB103490348AFF3EB
:10623000008008BD000000008CA20020442C030058
:10624000154B002B08BF134B9D46A3F5803A002148
:106250008B460F461348144A121A04F025F90F4BC7
:10626000002B00D098470E4B002B00D09847002001
:10627000002104000D000D48002802D00C4806F053
:1062800039FA03F0B7FF2000290000F045F803F0C9
:10629000A1FF00BF00000800000001200000000076
:1062A0000000000088A200201CB00020F5C60200FB
:1062B00061D90200036883EA4333024683EA534309
:1062C00083EA431010607047F7B5114E114F044632
:1062D0000D46042D0AD80F48FFF7ECFF2A4601901F
:1062E00001A9204603F0DAFF03B0F0BD294630468D
:1062F00004F02AF93846FFF7DDFF042201900DEB88
:106300000201204603F0CAFF043D0446E1E700BF56
:106310000C14030068AF00202DE9F0414FF4004158
:10632000C8B0002001F08EFA18B1194A332100F0EC
:106330004EF901F0ABF91748174DDFF86C80174F95
:1063400004F002F93921164804F0FEF815496846B0
:1063500003F082F93B21124804F0F6F8114924A811
:1063600003F07AF924A9684603F0DDFC45F0010545
:1063700004464FF47A764FF47A40A847013EFAD1AA
:10638000404604F0E1F82146384604F0DDF8F0E735
:106390001B140300221403006014030047140300BD
:1063A00034140300C96202003F14030038B5054DE0
:1063B000044645F001054FF47A40A847013CFAD164
:1063C00038BD00BF2015030070B5054686B00E46E7
:1063D000144672B601F058FC01F08EFA0028FBD189
:1063E000464804F0B1F844F201039D4276D00AD841
:1063F000012D12D041F201039D426DD0314640483B
:1064000004F0A2F80CE044F202039D42F6D1228887
:1064100061683C4804F098F802E03B4804F094F8C6
:1064200001F068FF08B901F02DFF0023ADF814302A
:106430008DF8163005A9012311208DF8153001F0D3
:1064400063FF05A9122001F05FFF05A9132001F0E9
:106450005BFF05A9142001F057FF112002F010F88E
:10646000122002F00DF8132002F00AF8142002F0B6
:1064700007F84FF4FA70FFF799FF112001F0D2FFEF
:10648000122001F0CFFF132001F0CCFF142001F007
:10649000C9FF3220FFF78AFF112001F0F1FF12201F
:1064A00001F0EEFF132001F0EBFF142001F0E8FFF4
:1064B0004FF4FA70FFF77AFF112001F0B3FF1220BA
:1064C00001F0B0FF132001F0ADFF142001F0AAFF8E
:1064D000FA20FFF76BFFC0E70C489FE7A168039124
:1064E000084601F08BFE236801960093024663681C
:1064F0000399074804F028F892E700BF66140300E8
:1065000005150300C01403007F1403009D1403004D
:10651000DB14030007B501F0EDFE08B901F0B2FE8F
:106520000023ADF804308DF8063001A901231120B5
:106530008DF8053001F0E8FE01A9122001F0E4FE1B
:1065400001A9132001F0E0FE01A9142001F0DCFEF6
:10655000112001F095FF122001F092FF132001F0AD
:106560008FFF142001F08CFF4FF4FA70FFF71EFF2D
:10657000112001F057FF122001F054FF132001F009
:1065800051FF142001F04EFF3220FFF70FFF1120C2
:1065900001F076FF122001F073FF132001F070FF6D
:1065A000142001F06DFF4FF4FA70FFF7FFFE112089
:1065B00001F038FF122001F035FF132001F032FF07
:1065C000142001F02FFFFA20FFF7F0FEC0E700B51E
:1065D00083B002900091019244F2010071466A4634
:1065E000FFF7F2FE03B000BD094A537891780133FA
:1065F000DBB2994208BF0023117899421FBF037094
:106600005078182303FB002014BF0430002070478B
:10661000A4A2002073B5054600240DF107000E4624
:106620008DF8074000F036FA0DF10600FFF7DCFFA9
:1066300090B10670094B9DF8062045605A709DF890
:10664000070000F057FA24B9054B4FF48012C3F845
:106650000021204602B070BD0424F0E7A4A200206F
:1066600000E100E0024B4FF43C6043F001031847A7
:1066700030150300F8B51F491F4B0025C1F84051E4
:10668000C1F84451C1F84851C1F84C51C1F800510A
:10669000C1F804511B684BB3D1F804451749096888
:1066A000641A24F07F442F461A68A24209D8A41A1B
:1066B00015441A7CDE691AB1D3E905201F7490478E
:1066C000AEB90F4A0F4B11781B788B4205D10133BD
:1066D000DBB2022B08BF0023137012780A4B43F879
:1066E00022500A4B4FF48012C3F80021F8BD334604
:1066F000DAE700BF00100140C4A30020C0A30020BF
:10670000BDA30020BCA30020B4A3002000E100E052
:106710002DE9F04FA14AA24913780978A14D994279
:1067200085B03CD00133DBB2022B08BF00231370CD
:106730009D4912789D4B0F6853F822003B1823F0B7
:106740007F4300220B602B6816461446944613B90B
:1067500042B12B6006E0196881420ED902B12B606C
:10676000091A196001272B68DFF848A201934FF03E
:106770000008BEB9DFF844B262E0401A0C44D968A0
:10678000D3F81CE0C3F800C031B13A1922F07F42BF
:10679000C3E90121DE611E4673460122D7E70026C8
:1067A0003746E0E73446F6697F4A63681268DFF8E7
:1067B00010C2A068991A21F07F41614500F2A880BB
:1067C00001442160012222742A680023C4E90133B4
:1067D000E361002A40F0A5802C60CAE79BF8021014
:1067E0005A1CD2B291428BF8002004BF00228BF8D1
:1067F0000020182202FB03B32A6819799C68022939
:1068000077D0032900F08180012919D1207CB8B903
:10681000D96861601A69A2605A69E2609B69A361E4
:10682000634B1B78002B18BF01466160BCE78C42AC
:1068300000F091808946C9690029F8D100232374AA
:106840009BF800309BF801209A42C7D12B68B8F121
:10685000000F04D1019A9A4201D1002F43D0002B9E
:1068600041D0D3F800A0534D4F4BD5F804751C68A8
:10687000DFF850813E1B98F8003026F07F46033643
:106880009BB94FF48033C5F84433C5F804334A4B01
:106890004FF40032C3F880211A604FF00109C5F8A7
:1068A0000090FFF7DFFE88F80090B2452CBF5444FB
:1068B000A41924F07F44C5F84045D5F80435DB1B06
:1068C00023F07F43E41B033324F07F44A3420AD91F
:1068D000D5F80435C5F84035FFF7C4FE364B4FF404
:1068E0000032C3F80021324B00221A7005B0BDE817
:1068F000F08F114691469FE71174D2690123002A57
:10690000FAD1002B9CD02A609AE700231946F6E7BB
:10691000D31A23F07F43834234BFC31A002323607A
:1069200050E721681368994213D8591A1160E2613F
:1069300052E7091AD8691A4638B1034618688842DE
:10694000F7D3401A1860184613462160E061DC61F5
:106950000FE71346F2E74C4511D1D3692B6073B9A9
:10696000DFF844E00120CDE90212CAF80800CEF8B1
:1069700000300F4B1870FFF775FEDDE902120B684F
:10698000C969C9F81C1011B1086803440B602B6871
:10699000934218BF4FF0010850E700BFBCA300208E
:1069A000BDA30020C4A30020C0A30020B4A30020E6
:1069B000B0A300200010014000E100E0A4A20020EC
:1069C000FEFF7F00B1A300202DE9F743DFF88480AC
:1069D00098F8023005460E461746ABB3A0B304291B
:1069E00030D9436983B3437C0024012B0DF10700A8
:1069F0000CBF8946A1468DF8074000F04BF80DF119
:106A00000600FFF7F1FDD8B1012303700F4B45607D
:106A1000D3F80435C0E90497C0E902369DF8063082
:106A200088F801309DF8070000F064F824B9084B9D
:106A30004FF48012C3F80021204603B0BDE8F08374
:106A40000424EFE70724F7E70824F5E700100140E6
:106A500000E100E0A4A20020064A92783AB130B1E9
:106A6000426922B1002202740221FFF7D3BD08203F
:106A7000704700BFA4A20020EFF30583C3F308030F
:106A80002BB9EFF31480C04300F0010070470120E0
:106A90007047000070B50446FFF7EEFF012803D0F1
:106AA0001049432002F018FCEFF3108672B60E4A2C
:106AB0009068012398B993600C4B0D4DD3F880106A
:106AC00029401160C3F88050D3F8841051604FF012
:106AD000FF32C3F88420207006B962B670BD2370FF
:106AE000FAE700BF361503006CAF002000E100E0BC
:106AF000FC06FFBD10B50446FFF7BEFF012803D01A
:106B00000949512002F0E8FB084B9A685AB154B980
:106B1000EFF3108172B6064A18681060586850602A
:106B20009C6001B962B610BD361503006CAF002041
:106B300000E100E0024B1B680021986803F018BDDB
:106B4000BC9800201EF0040F1CBFEFF309800AE080
:106B5000EFF308800549064A884201D8904202D8DE
:106B60008D464FF00000034B184700000000012045
:106B700000E00020796B02002DE9F347054601F0A3
:106B800083F800F0B9FE0028FBD12F4C2F48304B82
:106B9000241AE40824049F6A44F00104002D4ED016
:106BA000AA692C49204601F017F8EB680193AB68FD
:106BB000294900932046D5E9002301F02CF8EB6920
:106BC00000932649D5E90423204601F018F8204B0C
:106BD000DB6A980703D52249204600F0F9FFDFF869
:106BE0009490DFF894A000264FF0010808FA06F30D
:106BF0003B4206D059F826201AB15146204600F0F3
:106C0000EBFF01361A2EF1D1390605D5104B154987
:106C10005A6B204600F0E0FF3A0405D50C4B1249B0
:106C20009A6B204600F0D8FF104B1B68DB0700D59D
:106C300000BE2846FFF76EFC02B0BDE8F0870C49A5
:106C4000204600F0C5FFC2E7982C0300502C03003B
:106C500000ED00E08215030097150300CC1503003A
:106C6000271603007616030096160300F0ED00E0E9
:106C7000F4150300701B03006B16030010B50346E8
:106C800053E8000F0A4643E8002494F0000FF7D1C0
:106C900010BD10B5034653E8002F42EA010043E857
:106CA000000494F0000FF6D110BD10B5034653E870
:106CB000000F00EA010243E8002494F0000FF6D12F
:106CC00010BD10B5034653E8002F02EB010043E866
:106CD000000494F0000FF6D110BD10B5034653E840
:106CE000002FA2EB010043E8000494F0000FF6D15E
:106CF00010BD0121FFF7CDBF0021FFF7D6BF000077
:106D000010B50446002834D003681BB91A49FF2087
:106D100002F0E2FA636823B917494FF4807002F079
:106D2000DBFAA36823B9144940F2011002F0D4FA47
:106D3000E36823B910494FF4817002F0CDFA238A39
:106D400023B90D4940F2031002F0C6FAD4E9012339
:106D500021689B1ADBB20A60013BDBB2FF2B226881
:106D600002D10020107110BD1168481C10600B701A
:106D7000F2E70E20F7E700BFD81B030037B5044643
:106D800020B914494FF4927002F0A6FA00250DF1D3
:106D900007008DF80750FFF77DFE226861681368D1
:106DA0008B4210D9591E116013F8015C228AE368E6
:106DB00002FB05352268A36811685B1A1179DBB202
:106DC000994238BF13719DF80700FFF793FE2846DC
:106DD00003B030BDD81B030037B50C46054620B9BB
:106DE000104940F2471002F077FA24B90D494FF4E8
:106DF000A47002F071FA00230DF107008DF807303E
:106E0000FFF748FE2A681368591C1160E968641A84
:106E1000298AB4FBF1F41C709DF80700FFF76AFEA5
:106E200003B030BDD81B030090DF7047A5DF70476B
:106E3000B5DF70477FB50023ADF80810ADF80A1034
:106E40006A4602A9064603930093ADF80430FFF7A3
:106E5000EBFF054600B3124B124CE41AE40801F0B4
:106E6000CDF9240444F0010403460F49324620467C
:106E700000F0BBFEBDF80020BDF8023052EA03016D
:106E800003D00A49204600F0B0FEBDF804201AB134
:106E90000749204600F0A0FE284604B070BD00BFA0
:106EA000502C0300A02C03001F1C0300691C0300CE
:106EB000A81C030013B5034680880C46B8B91A888D
:106EC000242A00F0968014D8112A71D0232A00F0C9
:106ED0009E80102A3BD0A37A4BB1E1880020FFF7B7
:106EE000A5FF002840F099804FF48073638102B0C1
:106EF00010BD3A2A65D0552AEDD1DB88C988A07229
:106F0000172B38BF17238B4228BF0B462381FFF76F
:106F10008FFF60B101F072F9484B49490246494878
:106F20001B1ADB081B0443F0010000F055FEE37A56
:106F3000002BD0D12369002BCDD040F677220092D0
:106F40002289ADF80420694620469847C3E70A79AC
:106F50000A73DB7B012B13D0022B14D0E188238929
:106F60008B4205D20020FFF761FF70B90123E37265
:106F7000217B637B8B42AED20020FFF75BFFAAE749
:106F80000B88E380EAE74B88FBE7112802D1012355
:106F9000A372EDE701F032F9284B2B49024629484C
:106FA0001B1ADB081B0443F0010000F015FEDFE7AD
:106FB000F723CB8017230B8141F6FB3348818B816C
:106FC00089E75B89CA88934228BF1346172B0A6951
:106FD00038BF17230B814AB1C97A39B140F67721FE
:106FE0000091ADF804306946204690470023638144
:106FF00071E71A7A0B694A73002B3FF46CAF4DF6B8
:107000007A218DF8050000918DF804209BE7197A0C
:10701000237B994228BF1946AFE711283FF467AF99
:1070200001F0ECF8054B0849024606481B1ADB083C
:107030001B0443F0010000F0CFFD58E7A02C030033
:107040002F1D0300502C0300FE1C0300B0DF70470F
:1070500066DF704710B5002104464088FFF7F8FF4F
:10706000034608B9237210BD112801D10123F9E7A5
:107070006368BDE81040184728B10378DE2B04D1BF
:107080004180002070470E20704708207047F0B5FF
:10709000054685B00C46F1B1E8B10B78DE2B1AD16C
:1070A00082884B889A4204D10B7A13B10846FFF7C5
:1070B000D1FF2B88112B32D0512B0ED0012B0AD1AE
:1070C0002B7A012B07D1A9886288914203D12372C0
:1070D0002046FFF7BFFF05B0F0BDAE886388B3421E
:1070E000F9D1AF79022FF6D1AD7B2B1F022BF2D84D
:1070F00000211022684603F0D7F9052D14BF4FF484
:10710000C0730023694630468DF80070ADF8043036
:10711000FFF79CFF0028DED063689847DBE76388B1
:10712000AA889A4204BF4FF6FF736380D3E700003A
:1071300010B5044618B90649312002F0CDF8A2680E
:107140002AB163692168206998470023A36010BDB4
:107150006B1D03000EB433B5059D044618B91149E3
:10716000422002F0B9F863691BB90E49432002F0CE
:10717000B3F823681BB90B49442002F0ADF86368EB
:107180001BB90849452002F0A7F835B106AB01AAA2
:1071900029462046019300F071F802B0BDE8304066
:1071A00003B070476B1D0300826830B40468551C3F
:1071B0008560A154D0E901329A4202D330BCFFF776
:1071C000B7BF30BC704700002DE9F84F9846DDE9A5
:1071D0000A43154682460F460A464FF00109AA4265
:1071E0000FD2C14538BFC14613F0010B01D16CB9B4
:1071F00000240126B8F1010F1BD908F1FF386E43B6
:10720000F8E709F10109B2FBF5F2E8E79B070ED5B3
:10721000B8F1000F0CBF30262026A145E9D2013C71
:1072200031465046FFF7C0FF002CF6D1E0E720269C
:10723000F3E7B7FBF6F39D42E1D9DFF83C80B7FBFB
:10724000F6F3504618F8031006FB1377FFF7ACFF70
:107250003346AB42B6FBF5F6F1D2BBF1000F02D0DC
:107260000CB1A14501D3BDE8F88F20215046013C67
:10727000FFF79AFFF4E700BFEC1D03002DE9F74F7D
:1072800088461746054620B9B1494FF4A27002F06E
:1072900023F86B6923B9AE494FF4A37002F01CF8D0
:1072A0002B6823B9AA4940F2471002F015F86B6821
:1072B00023B9A7494FF4A47002F00EF8B8F1000FFB
:1072C00000F0428118F8011B49B92B7B002B00F01C
:1072D0003B81284603B0BDE8F04FFFF729BF2529C1
:1072E00040F0B780002698F800302D2B424608F178
:1072F000010823D0302B24D02B2B25D000242A2B7F
:1073000002F1010123D13B681A1D3A601B680A464D
:107310001C4413782E2B26D101324FF0000A104660
:1073200010F8011BA1F1300CBCF1090F1DD80A2384
:1073300003FB0A13A3F1300A0246F0E746F0010608
:10734000D1E746F00206CEE746F00406CBE711F897
:10735000013CA3F130000928DBD80A2202FB0434E7
:10736000303C0A46CBE74FF0000A12F8011B01F04F
:10737000FB0068289046F8D0782909D86F290CD8E6
:10738000632962D022D8252963D0582900F088804B
:1073900098F80030002B95D197E770390829F7D875
:1073A00001A353F821F000BF23750200917302007E
:1073B00091730200B1740200917302008F74020095
:1073C0009173020091730200A1740200642901D03C
:1073D0006929DDD13A68111D3960D2F8009089EA37
:1073E000E972A2EBE9724FF0010B092A35DCD345B3
:1073F00038BFD3462CB1B9F1000F01DB720700D5BD
:10740000013CB30702D5BAF1000F03D0F00701D455
:107410004CBB0024B9F1000F2DDAC9F100092D2170
:107420002846FFF7C1FE06F00302022A04D1BAF192
:10743000000F01D11CBB0024CDE9004653460A22AF
:1074400049462846FFF7C0FEA2E73B681A1D3A608E
:1074500019782846FFF7A8FE9AE70A230BF1010BDB
:10746000B2FBF3F2C1E7A345D4D220212846013C68
:10747000FFF79AFECCE77107D5D52B21D0E7A345BE
:10748000DAD230212846013CFFF78EFED2E7396878
:10749000CDE900460A1D3A6053460A220968D0E742
:1074A00039680A1D3A60CDE9004653461022F5E7D7
:1074B0003B681A1D3A6016F00106D3F8009028D1F7
:1074C000B9F1000F03D0484603F09AF90646B442DA
:1074D00000D904BB09F1FF3919F8011F00293FF455
:1074E00057AF2846FFF760FEF6E728460136FFF75C
:1074F0005BFE19F806100029F7D1A642BFF448AF89
:10750000002C3FF445AF20212846013CFFF74CFEFC
:10751000F3E70026EDE720212846013CFFF744FE73
:10752000D5E73B681A1D3A60302128461C68FFF7F2
:107530003BFE78212846FFF737FE00220823CDE9DD
:107540000032214610227CE703B0BDE8F08F00BF77
:10755000A81D03007047000007B5044B0093044AC0
:10756000402300F032F803B05DF804FB75750200AB
:10757000C9A300202DE9F84388461446B2B10F4B49
:107580000F4E0325002743F00109224608EB0701AF
:10759000002001F0CDFA0744241A48B933782BB102
:1075A0004FF47A40C847013D02D13570BDE8F883F9
:1075B00001233370002CE8D1F8E700BF101E030050
:1075C000C8A30020704701F007BBF0B595B01D4679
:1075D000164608460C4600F02AFD1A9B0D93CDE98D
:1075E000086500252B46082205A920460A958DF836
:1075F0002C500C9500F042FD079B0293069B0393D1
:107600009DF814308DF8115003F00302012A1DD1AA
:10761000BDF81420059DC3F3C203C2F383168DF891
:107620001030B20008230EA9204600F027FDC5F354
:10763000952508AB0093324602AB0EA9284600F010
:1076400099FB204600F0F7FC15B0F0BD022AF8D1F6
:10765000BDF81650C3F3C203C5F389158DF8103079
:107660000827082D2E4628BF08263B4632460EA97D
:10767000204600F003FDAD1B08AB02AA31460EA860
:10768000374400F0DBFB002DEBD1DAE708B5FFF75C
:107690009AFF0748042100F0CDFA002803DA0549D3
:1076A000412001F019FE044B01225A7108BD00BFB0
:1076B0003C2D0300241E0300A8980020037813F03B
:1076C000040216D003F00303012B03D0022B09D0D0
:1076D000012070470A6800880232C0F38310024418
:1076E0000A60F5E70B684288023303EB92130B60E4
:1076F000EEE71046704700002DE9F04F89B00023F7
:107700000446861C0DF10F000F4615468DF80F300C
:10771000FFF7C0F9494801683960D0E901321344E4
:1077200001335B1A824600F21C4700F5836900F2C0
:107730001448B3421CD30020002D7BD004F00F036B
:107740009B0143F0050363F30F00DAF80020DAF839
:1077500008301340033316444AF823009DF80F0005
:10776000CAF80060FFF7C6F9012009B0BDE8F08F44
:1077700001213846FFF7A5FA4846FFF7BAFA404616
:10778000FFF7B7FADAF80400DAF808B0049000EA74
:107790000B0003300AEB800004A9FFF78FFF049B66
:1077A0000246F8B90BEA03010AEB810103F1020C6E
:1077B000C8680590013303EA0B0B0AEB8B0B00F052
:1077C00003000128DBF80C10CDF810C02AD00228E5
:1077D0000BD01B4901924FF4BF7001F07DFD019A5F
:1077E00093460CE00BEA0300D3E7BDF81630C3F371
:1077F000891303334FEA114B0CEB93030493404678
:10780000FFF77AFA10B1049BCAF80430594638469B
:10781000FFF757FADAE901231344DAF800200133BD
:107820009B1A86E7BDF81430C3F383134FEA114B5C
:107830006344E3E7A40544F0060086E7DCA40020E7
:107840008A1E03000B4B0C48FF2210B59A600022E1
:10785000C3F81824C3E90022C3F81424012283F8D2
:10786000202400F09DFB044610B9044800F01AFCE7
:10787000204610BDDCA40020C82C0300F01E03002D
:1078800030B50A4C71B10A4A0A49121BD2080023CA
:107890009A4201D1002030BD31F82350854202D0F8
:1078A0000133F5E7034654F83300F4E7502C0300A6
:1078B000C82C030084A20020094B013903EBC0004F
:1078C000032909D8DFE801F00A0204060420704702
:1078D0000079704740797047002070470220704758
:1078E000502C0300034BD3E90030C31A58425841CF
:1078F000704700BFDCA400202DE9F04387B0FFF7FC
:10790000F1FF0646002840F0F9807D4DC5F81804C7
:10791000BFF34F8F6B68AC6802932340033305EBD2
:10792000830002A9FFF7CAFE029B18B1D5F81824FC
:10793000002A5FD004EA0302991C013305EB82029E
:10794000234005EB8303D268DB68049302F0030352
:10795000022B0392029160D1BDF80E306948C3F347
:107960008917502FB84628BF4FF0500868F38F137F
:1079700008F10801ADF80E3000F02AFB0646002899
:1079800000F0A78000F053FB0023082203A9304633
:1079900000F060FB029924EA01020132B8EB820F89
:1079A0004FEA820332D95FFA88F85BB32140DCB238
:1079B000A8EB040803315FFA88F9A046524C05EBA6
:1079C000810108234246304600F044FB34B108F1FF
:1079D00008034A462146304600F03CFB029B033731
:1079E00003EB97070297D5F81834002B49D1D5F847
:1079F000104459E02A689A428FD86A60304607B02E
:107A0000BDE8F08340491C469946DAE70C40E11C8A
:107A10000823424605EB8101DDE7012B59D1BDF872
:107A20000C303848C3F38311062928BF062161F3BF
:107A3000891302318900ADF80C3000F0C9FA06460E
:107A4000002846D000F0F3FA0023082203A93046AC
:107A500000F000FB0027BDF80C20C2F38312BB002E
:107A6000974203F10803BED202994A1C2140033118
:107A7000029205EB81010422304600F0EBFA013757
:107A8000E9E7304600F0D7FAFFF72CFF80F001005D
:107A9000C6B2B3E7E3685B7923B1236831461B685C
:107AA00020469847E3681C68002CF3D1304600F06C
:107AB000C2FA0DF107008DF80740FEF7EBFFD5F88D
:107AC00018340BB9029B6B609DF80700FFF712F8A2
:107AD000DAE7D5F8104454B90C4B0D480D49C01ADB
:107AE000C008000440F0020000F072F8CCE7236800
:107AF00020469B689847E3681C68ECE700267DE712
:107B0000DCA40020C82C0300E8A40020502C0300B3
:107B1000902C0300D81E03002DE9F74F274D044693
:107B20000F46914601A901221846D5F808A09846AB
:107B3000FFF7E2FD78B3019E0023B01C434503EB41
:107B4000000132D100211E48FFF798F84FEA14498E
:107B500080F3100B1B4B1C4A9B1AB9EBD30F04D3B9
:107B60001A4940F2A31001F0B7FB731C03EA0A03A1
:107B7000E40005EB830304F0380449EA0B4006EA0D
:107B80000A0644F00104D860033644EA881343EA45
:107B9000872345F8263095F820341BB1FFF7ACFE5B
:107BA0000028FBD103B0BDE8F08F0AEA010105EB24
:107BB000810159F82320CA600133BFE7DCA400200B
:107BC000F8A80020C82C0300502C03008A1E0300D4
:107BD00000231A46FFF7A0BF07B50123019201AAAF
:107BE000FFF79AFF03B05DF804FB07B5CDE900236A
:107BF00002236A46FFF790FF03B05DF804FB1FB550
:107C0000CDE90123069B039301AA0323FFF784FF19
:107C100005B05DF804FB1FB5CDE90023069B029378
:107C2000079B03936A460423FFF776FF05B05DF8D0
:107C300004FB000030B5134AD2F81044034600207C
:107C4000214649B9DC682071D2F8104454B9C2F811
:107C50001034DB68196030BDC9680D7985420AD0DF
:107C60000968EEE7E468D96824680C60D2F810244B
:107C7000D2681360EFE701300A28E1D14FF0FF30FE
:107C8000E9E700BFDCA4002038B5094A0123D2F897
:107C9000104482F820341D4604B938BDE3685D7194
:107CA000236820465B689847E3681C68F4E700BFD8
:107CB000DCA4002007B503460846197A052911D02F
:107CC0005B7A2BB1094A0A490190FFF743FA019800
:107CD00008490190FFF73EFA019803B05DF804EB04
:107CE000FFF726BA002AF8D0F2E700BFFC1E030017
:107CF000011F0300211F030030B5C38885B004466F
:107D00000D4633B1144A00921449154A2846FFF72C
:107D100021FA217A05291DD0637A4BB1A088FFF79B
:107D2000CBFD104B104953F820202846FFF712FADC
:107D3000227A0E4BA08853F8222003920021FFF7ED
:107D40009FFD039A0A490346284605B0BDE8304026
:107D5000FFF700BA05B030BDFC1E03000C1F030086
:107D6000041F0300881F0300011F0300AC1F030052
:107D7000241F03002DE9F04385B01F460C9D00230E
:107D800095F80C902B7306460C46904629463846CB
:107D9000FFF7B2FFB8F1060F09D8DFE808F00412C8
:107DA000181F2833400031462846FFF7D3F9002238
:107DB00029463846FFF77EFF85F80C9005B0BDE8F0
:107DC000F083226831462846FFF7C4F9EFE7D4E98B
:107DD000002331462846FFF7BDF9E8E7A368009382
:107DE0003146D4E900232846FFF7B4F9DFE7E3681A
:107DF0000193A36800933146D4E900232846FFF796
:107E0000A9F9D4E723690293E3680193A368009377
:107E10003146D4E900232846FFF79CF9C7E7636998
:107E2000039323690293E3680193A36800933146A7
:107E3000D4E900232846FFF78DF9B8E708292DE992
:107E4000F84F80460E4617461C463BD8002593F84F
:107E50000C901D7319461046FFF74EFFDFF88CA0FB
:107E6000DFF88CB0AE422FD918F8052059462046CD
:107E7000FFF770F90135082DF4D11949194DDFF8D4
:107E800074A02046FFF766F94FF0000B5E4522D93B
:107E900018F80B207E2A1CD8134BD15C11F0970FD9
:107EA00008BF2E2251462046FFF754F90BF1010B73
:107EB000BBF1080FEAD1012221463846FFF7FAFE4E
:107EC00084F80C90BDE8F88F51462046FFF742F940
:107ED000D0E72E22E6E729462046FFF73BF9E5E703
:107EE000381F0300361F0300B9290300341F0300A5
:107EF0002E1F03003A1F03002DE9F74F99469DF806
:107F00003030009388469346064618B92349B62078
:107F100001F0E2F9F18872794A43043A4A4505D8FA
:107F20001E490192C42001F0D7F9019ADBF80070D4
:107F3000B6F806A007EB0901914209F1040488BFD5
:107F4000A2EB0907B4FBFAF5CBF800700AFB154465
:107F500045B9AAEB040BBB4528BFBB462FB903B0FC
:107F6000BDE8F08F3668013DF2E7009B043408EB72
:107F7000050034445A466BB12146A7EB0B0702F0CB
:107F80008DF9BA455D443668D3464FF0000428BFEA
:107F9000BB46E3E701462046EFE700BFC91F0300E9
:107FA000FEF7AEBEF8B546790146721E05460023BF
:107FB00093422D6803D30024A64202D8F8BD0133B2
:107FC000F6E70F682846FEF707FF01343946F3E766
:107FD0002DE9F843CD1C068A0746FEF7CFFE043E86
:107FE00035440446B5FBF6F5F0B14FF48073EDB2BD
:107FF0008380C680013D076081464FF00008A84598
:1080000012D23846FEF7BAFE064648B1637901330C
:10801000637108F10108C9F8000007608146EEE7C6
:108020002046FFF7BFFF34462046BDE8F883012114
:108030000430FEF746BE10B5012104460430FEF7B9
:108040004CFE10F0FF0F04D12046BDE81040FFF7B2
:10805000A9BF10BD1FB5144603920022009203AAC7
:10806000FFF74AFF039BA34203D00349F62001F028
:1080700033F904B010BD00BFC91F03001FB514467B
:1080800003920122009203AAFFF736FF039BA3424B
:1080900004D003494FF4807001F01EF904B010BD04
:1080A000C91F03008268002393608268136182689D
:1080B00053618268D360826853608268136070473E
:1080C00038B50D46044618B90849502001F004F9A6
:1080D0001DB90649512001F0FFF825602B68636047
:1080E0006A68934204BF0023636038BD1020030018
:1080F00010B5044618B90B49632001F0EDF8236868
:108100001BB90849642001F0E7F8636843B12268AD
:1081100091680B4463605268934204BF002363601C
:1081200010BD00BF1020030007B508496846FFF7DF
:10813000C7FF019B13B903B05DF804FBD3E900202E
:1081400090476846FFF7D4FFF3E700BF78200300AD
:10815000FFF7EABF61DF704730B5134DADF5017D24
:108160004FF4FA740DF1020103A8ADF80240FFF7D5
:10817000F1FF70B9294601A8FFF7A2FF029B002B6F
:10818000F0D003A8D3E90021904701A8FFF7B0FF82
:10819000F4E7052804D0054A40F23911FEF717FA32
:1081A0000DF5017D30BD00BFDC20030084200300FD
:1081B000024B1B780BB1FFF7CFBF704738A90020E7
:1081C00010B50D49A1F59472914201D800200FE03D
:1081D0008C1AE30F03EBE4035B1002EBC30452F8C9
:1081E0003330834205D802D204F10802ECE760681C
:1081F00010BD2146E8E700BFE025030008B5FFF702
:10820000DFFF024B002808BF184608BDA224030068
:1082100000F1804000F5C040002382B00360036895
:108220000193019B02B07047054B4FF0FF320728C6
:1082300043F8202084BFC01880F84820704700BF52
:108240003CA9002002494FF4F37001F045B800BF8B
:10825000E02503001F2838B504460D4601D9FFF775
:10826000F1FFA00000F1A040D0F8003723F4403324
:10827000C0F80037D0F8003743EA0543C0F80037AC
:1082800038BD000010B5174C94F8583043BB04F1CA
:1082900030032021FF22013911F0FF0103F8012BE7
:1082A000F9D1C8B2FFF7C0FF01310C29F9D104227E
:1082B00000210D4802F0F8F80C4BE02283F8062369
:1082C00040221A604FF4BE70FFF7A2FF084B4FF038
:1082D0000042C3F80423012384F85830002010BD65
:1082E0000820FCE73CA9002090A9002000E100E064
:1082F00000600040034B93F85800003818BF01207D
:10830000704700BF3CA900201F2870B504460D46E9
:1083100004D941494FF4987000F0DEFF3F4E96F8C3
:108320005830012B04D03C4940F2311000F0D4FF0A
:1083300025B939494FF4997000F0CEFF331993F9FC
:108340003020013266D1AA78002A55D0334B002262
:1083500053F8041B01314AD1331983F8302000232C
:1083600046F82230920002F1804202F5C0422B789A
:10837000D2F81005697820F498101B04090520F440
:10838000F85001F4801103F44033C2F810050B4398
:108390002102D2F8100501F4F8510B430343C2F84F
:1083A00010356B78012B4FF0010529D11F2C01D915
:1083B000FFF748FF4FF0A043A540C3F808551F2C16
:1083C00001D9FFF73FFF04F5E0724FF0A04303210E
:1083D00043F8221024FA01F3114A0120D15C04F081
:1083E000070400FA04F40C43D454002003E00132E3
:1083F000082AADD1042070BDFE2283F83020D0E7DA
:108400001F2C01D9FFF71EFF4FF0A043A540C3F872
:108410000C55D4E70820EEE71A2603003CA90020FB
:1084200090A900201F2838B5044604D912494FF4FA
:10843000BE7000F051FF114D2A1992F9302001321F
:1084400004D10D4940F27D1000F046FF2B1993F83E
:108450003030072B04D808494FF4BF7000F03CFFC0
:108460001F2C01D9FFF7EEFE01204FF0A04300FAC8
:1084700004F4C3F8084538BD1A2603003CA90020BF
:108480001F2838B5044604D912494FF4C37000F0D0
:1084900023FF114D2A1992F93020013204D10D49E0
:1084A00040F2871000F018FF2B1993F83030072B9B
:1084B00004D808494FF4C47000F00EFF1F2C01D9F6
:1084C000FFF7C0FE01204FF0A04300FA04F4C3F808
:1084D0000C4538BD1A2603003CA900202DE9F04FB9
:1084E00087B000245F4D03944FF48072012102F1A4
:1084F000804303F5C04390B21B68012B06D1D5F829
:1085000004330B4202D0FFF783FE0C430432B2F572
:10851000907F4FEA4101EAD1534B1B68012B0AD1EE
:108520004FF4BE70FFF774FE4FF0A04344F00044D8
:10853000D3F81035039314F0FF0F1AD04B4F0025DA
:108540000126344210D0AB0003F1804303F5C04351
:10855000D3F81005D3F8101557F8253023B1C1F31F
:108560000141C0F3042098470135082D4FEA460623
:10857000E7D1002C6EDA00214FF0FF33CDE9041370
:108580003A4FDFF8EC800026354618F9013B5A1CBB
:1085900055D0C3F3C20201215FFA83FB03F03F0908
:1085A00003F0070301FA03F406AB991811F8043C31
:1085B000234244D007EB09034FEA9B1B93F9303069
:1085C00057F823A0BAF1000F0BD1BBF1030F36D13E
:1085D0000DF1100E1EF802C04CEA040C0EF802C099
:1085E00002E0BBF1030FF3D0B9F11F0F03D90191E2
:1085F000FFF728FE019911F80C1C09F5E0724FF005
:10860000A043214253F82220C2F3014206D0022A9D
:1086100015D1BBF1030F0CD1594605E0032A0ED149
:10862000BBF1030F05D102214846FFF713FE0135C8
:10863000EDB2BAF1000F02D059464846D047013694
:10864000042EA2D135B14FF0A043039AD3F81035D0
:10865000934202D107B0BDE8F08F0393049B0593CA
:108660008FE700BF006000407C6100403CA9002013
:108670008CA9002010B5054C22681AB90449512074
:1086800000F02AFE2368BDE81040184798A9002092
:108690006626030000F1804000F5E040002382B030
:1086A000036003680193019B02B07047F0B5504B23
:1086B000504C1B6885B0002B3DD04FF4827094F86D
:1086C0002E20FFF7E7FF2AB394F82F3013BB4A4B55
:1086D0001B68002B33D04FF48070FFF7DBFF638BF8
:1086E00094F82D108B424FD922895B1A9BB292B21B
:1086F0006383D31A626802EB4303404AC2F82C3604
:10870000C2F830164FF48270FFF7C4FF3C4B0122D1
:108710001A6014E0636802932389ADF80C30E368B3
:1087200000218DF8041023BB2374236801A8984707
:10873000002384F82F3094F82E30002BC7D1314B12
:108740001B685BB14FF48870FFF7A4FF002323740C
:1087500002238DF8043001A8236898472A4B1B6830
:10876000EBB14FF48A70FFF795FF0023237405B037
:10877000F0BD208B608363602081E160002AD4D14A
:108780001E4B01221A60D0E7BCD1E368012284F8B5
:108790002F2013B100226283AFE76383B2E76669DB
:1087A0004FF000470125002EE1D0B6FA86F227FAF5
:1087B00002F34632920026EA030602F1804303F5F3
:1087C000E0431B68002BEED01046FFF763FFA2F5D5
:1087D0008C72D30882F00402C2F380028DF8083054
:1087E0008DF8045023688DF8092001A89847DAE72E
:1087F00004710040A0A900200071004000700040FA
:108800000470004010710040147100402DE9F341E4
:10881000104C114F114E00254FF480382368A4F5F9
:10882000004080B26BB1D7F8043308FA05F21A425F
:1088300007D00023236023680193019BD6E9003110
:1088400098470135042D04F10404E7D102B0BDE8D6
:10885000F08100BF4081004000800040D0A900208E
:108860000023435082B043580193019B02B07047EC
:10887000F0B54F4C236887B023B94E4940F24520EC
:1088800000F02AFD4C48D0F8243105469BB14FF446
:108890009271FFF7E5FFD0F8043163B9A368C0F81F
:1088A00008330223A360A368C0F8043301230362E2
:1088B000436107B0F0BDD5F80431002B49D03F4FDC
:1088C0003D484FF48271FFF7CBFF0FCF01AE0FC6CB
:1088D0003B68336094F82E307BB1237B012B0CBFB7
:1088E000D5F83C25D5F84C250292022B324B0CBF13
:1088F000D3F83C35D3F84C3503932F484FF4B0717F
:10890000FFF7AEFF2C484FF4AE71FFF7A9FF94F8C4
:10891000303013B194F82E303BB1274B0022C3F80E
:108920000022A260264AC3F80823234AD2F8C4349E
:10893000C2F8C4349A0736D501238DF8003094F874
:1089400030300BB984F82F30D4E9003168469847AD
:10895000AFE719484FF4A471FFF782FF237B83B977
:10896000164F0FCF01AE0FC63B68336094F830301E
:10897000002BDAD1C5F80032A360114BC5F80833DB
:10898000D3E74FF40073C5F8003240F20223A3602E
:1089900003F1CE73C5F80833A368C5F80433012387
:1089A000AB602B6285E713F0040318BF0223C4E712
:1089B000DCA90020BC26030000300040E8A900200C
:1089C00002029C0107B5154B1A687AB100221A60A1
:1089D0001B680093009B4FF080430122C3F80823DB
:1089E0000F4B587910B95A711B6898470D4B1A688C
:1089F00082B100221A601B680193019B4FF08043F3
:108A00000222C3F80823064B1B68012003B05DF85F
:108A100004EB184703B05DF804FB00BF0001004001
:108A200010AA0020040100400369C1688B429DBF69
:108A30008268D21802F1FF3203F1FF3394BF501A5B
:108A4000581A70472DE9F843D0E902940546A9EB7E
:108A500004084068904520440F46144404D901F0AE
:108A60001DFCEC60BDE8F8834246A4EB090401F06C
:108A700015FC6868224607EB0801F0E72DE9F8438A
:108A8000C5680646894617464FF000083469B36842
:108A90007068A54228BFE418013C621B5C1BBC4205
:108AA00028BF3C46944228BF1446494628442246E3
:108AB00001F0F4FBB3682544AB4208BF00253F1B1F
:108AC000A044A144F560E1D14046BDE8F883000030
:108AD00010B5114C114AA2610223C4E90433104BB2
:108AE000E361A2644FF400730E4A0F492362E2640B
:108AF00000231022E01DA3626362E362A365636545
:108B0000E365226501F00CFE0849204601F008FEED
:108B10002023A37110BD00BF78AF002015270300EC
:108B200028AA002018AA00201E27030022270300DD
:108B3000F8B5184C182300FB033503FB004025440F
:108B4000C46A012C0F4616460FD0022C1AD0F4B975
:108B50002846FFF769FF864205D83246394628463F
:108B6000FFF770FF34462046F8BD2846FFF75CFF4C
:108B70008642344628BF0446224639462846FFF737
:108B800061FFF0E72846BDE8F840FFF777BF002413
:108B9000E9E700BF78AF002073B50E4B1B780446A1
:108BA0000D4616460BB9FFF793FF00230DF10700A2
:108BB0008DF80730FDF76EFF324629462046FFF755
:108BC000B7FF04469DF80700FDF794FF204602B06A
:108BD00070BD00BF78AF0020FFF77ABF10B5114617
:108BE0001C461A460020FFF7D7FF204610BD72DF53
:108BF000704773DF704738B5012204460D46B0F860
:108C00003812D0F8340200F06BF900B1057004F1AD
:108C10003C0204F50D7104F15400BDE83840FFF743
:108C2000E6BFF8B5077804460D46002F00F0048132
:108C300000F24A26817007220021304601F034FC00
:108C4000E38813B1A378012B04D0E3794BB1A37867
:108C5000022B06D1636BA3B1012284F851220820B4
:108C60009847334604F5147113F8012F12B999424D
:108C7000FAD117466B1E032B52D8DFE803F0050B21
:108C80000F1284F85132ECE7A3791BB194F8243029
:108C900003B95FB9E3790BB1002F43D1237A002BDD
:108CA00042D1637A002B0CBF00250425636BA570AD
:108CB000002B3BD0033D012D38D86279002A35D0F6
:108CC00094F8522292BB84F85422012284F8532251
:108CD0000720984704F13C0518220021284601F09E
:108CE000E3FBE36A94F82420581E0121022828BFE0
:108CF0000B4684F83C1084F8513032B1884296BF5C
:108D0000A36A84F8521084F85230A178002384F8C2
:108D1000503004291BD8DFE801F0770D22355900C7
:108D20000025C3E70225C1E70325BFE7002384F838
:108D30005332CFE7C4E91063C4F84432022301225E
:108D400084F83C30802384F83120A4F84830A3789C
:108D5000002B5CD1636B002B6AD1002067E00223FB
:108D6000002A84F8313014BF0723032384F83C30F1
:108D70002369A4F848300023C4F84432E368266429
:108D80006364E4E763696364A369A4F8483012B1DB
:108D9000062384F83C306379B3B194F852329BB91E
:108DA00094F8543283B1022384F8503004212046D1
:108DB000FFF721FF0028CAD1052384F8313004F5DC
:108DC0000D73C4F84432C2E70323F6E7E369636432
:108DD000236AA4F8483012B1062384F83C30637942
:108DE00083B194F852326BB994F8543253B10223E0
:108DF00084F8503004212046FFF7FDFE0028A6D15C
:108E00000623DAE70423D8E784F831309FE7D4F863
:108E100044122A4604F15400FFF7E9FE38B994F8E9
:108E2000301094F85400FFF7E4FE002892D0F8BD0B
:108E300094F83100984790E70820F8E710B50388C8
:108E4000112B0C460AD0262B1FD0102B05D1C37B2B
:108E5000012B02D18388A1F8483210BD002381F88C
:108E600052328288B1F848329A42F6D10B79002BFF
:108E7000F3D101212046FFF7D4FE0028EDD0A36BEB
:108E8000002BEAD0BDE810401847037A013B012BC4
:108E9000E3D8897805230131B1FBF3F303EB8303B6
:108EA000C91AC9B2E6E7704770B5C0B14AB11688B1
:108EB0000024B44203D305196D789D4208D0A14225
:108EC00001D800200BE0055D01352C44A4B2F0E789
:108ED000A142F6D9A31C1380005D013880B270BD99
:108EE00013B513460022ADF806200DF10602044624
:108EF000FFF7DAFF10B1BDF80630E01802B010BD80
:108F0000034B1A8882420CBF18460020704700BFEE
:108F100044AC0020024B9B6903B11847704700BF67
:108F200028AC002037B50B46497A0F4A71B9D2E90F
:108F300001141D7A0246002D18BF21465868FDF71E
:108F400043FD08B1FFF7E6FF03B030BD0021197201
:108F50005369002BF8D00122ADF806008DF80420EB
:108F600001A89847F0E700BF28AC00204B88028892
:108F70009A4213D842889A4210D380888A8840F255
:108F8000F313984294BF031AC31A934206D800F20F
:108F9000F310904234BF002001207047002070473A
:108FA00070B50388122B014659D004D8102B1ED05F
:108FB000112B44D070BD502BFCD12F4BC288DB89C4
:108FC0009A42F7D1038A022BF4D186883046FFF704
:108FD00097FF05460028EDD001F1120000F050F88F
:108FE00038BB6868FDF738FD0028E3D009E0C37B93
:108FF000012BDFD14FF6FF70FFF782FF054620B946
:109000000420BDE87040FFF785BF8E881B4A0680AC
:10901000002303721368C0F80A305368C0F80E309A
:1090200010310A30FFF7A2FF134B6872DB89002B67
:10903000C0D129463046BDE87040FFF773BF808835
:10904000FFF75EFF04460028B4D04068FDF704FD3A
:1090500008B1FFF75FFF4FF6FF732380AAE786880A
:109060003046FFF74DFF05460028A3D008310A30EF
:10907000FFF77CFF6872DCE728AC002058AC0020CA
:10908000007800F00100704776DF70477FDF70479F
:1090900086DF70478ADF70478FDF7047B1DF704728
:1090A00033DF704737B50388212B044632D80F2BA6
:1090B00006D87D4B13B12046AFF3008003B030BD1E
:1090C000103B112BF5D801A252F823F04991020070
:1090D0008D910200B3900200C7910200039202003A
:1090E000B3900200B3900200B3900200B39002006C
:1090F000B3900200B39002001F920200B3900200EE
:109100006F920200B3900200B3900200B39002008D
:109110008D9202003B2B00F08F80503B9AB2062AC2
:10912000C7D8062BC5D801A252F823F0A991020096
:10913000B7910200E7910200B3900200B3900200E1
:10914000B39002004F920200584D81885848298000
:10915000FDF792FF20B1574A4FF49D71FDF737FAA2
:10916000002328881A461946FFF798FF20B1514A74
:109170004FF4A171FDF72BFA4F4801F0E5F94F4B81
:10918000002B96D02046AFF3008092E7474B4C4827
:109190004FF6FF721A8001F0D7F94A4B002B88D0A6
:1091A0002046AFF3008084E7474B002B81D0204658
:1091B000AFF300807DE7454B002B3FF47AAF2046AC
:1091C000AFF3008075E73948002300881A468521EF
:1091D000FFF75CFF00283FF46CAF364A40F2811184
:1091E000FDF7F5F965E73148002300881A4619466E
:1091F000FFF754FF00283FF45CAF2E4A40F287117E
:10920000EEE72A48002300881A461946FFF740FF78
:1092100000283FF44EAF274A40F29111E0E7037A6D
:10922000012B7FF446AFFFF73BFF00283FF441AF2F
:10923000204A4FF4CC71D3E780881321FFF724FF35
:1092400000283FF436AF1B4A4FF4D071C8E7A3792A
:10925000002B7FF42EAF154B13211888FFF714FF56
:1092600000283FF426AF134A40F2A711B8E7184B85
:109270000BB1AFF3008017490020FFF70BFF002868
:109280003FF417AF0B4A40F2C711A9E700238088CB
:10929000ADF8043001A9FFF7FFFE00283FF409AF45
:1092A000044A40F2D1119BE700000000F0AF00201B
:1092B000CCAE0020292703004F2703000000000048
:1092C0005F27030000000000000000000000000015
:1092D00000000000B098002013B504460548019135
:1092E00001F032F9019A04482146FDF770F902B005
:1092F00010BD00BF71270300EFBEADDEBFF34F8F7F
:109300000549064BCA6802F4E0621343CB60BFF321
:109310004F8F00BFFDE700BF00ED00E00400FA053D
:109320000C4B1B78062B10D10B4B1B681A070CD16A
:109330000A4B186800F0F003302B08D000F0E00072
:10934000A0F1400358425841704700207047012067
:10935000704700BFE00F00F0E40F00F0E80F00F0EE
:10936000094B1B78062B0CD1084B1B681A0708D138
:10937000074B186800F0F000A0F130035842584144
:1093800070470020704700BFE00F00F0E40F00F0CE
:10939000E80F00F008B5FFF7C3FF28B1894B8A4AF0
:1093A0001B68C3F304231360FFF7DAFF10B1874B88
:1093B000874A1A60FFF7B4FF28B1864B864A1B68BC
:1093C000C3F342331360FFF7CBFF20B1834AD36866
:1093D00023F08073D360FFF7A3FF40B14FF08043C9
:1093E0000022C3F80C21C3F81021C3F83825FFF779
:1093F000B7FF10B17A4B03221A60FFF7B1FF40B1FB
:10940000784B05221A6001229A6700229A603F2257
:109410005A60754B1B78062B50D1744B1B6818078C
:109420004CD1734B1B6803F0F003502B46D14FF027
:109430008052704BD2F80414C3F82015D2F80814E7
:10944000C3F82415D2F80C14C3F82815D2F8101458
:10945000C3F82C15D2F81414C3F83015D2F8181428
:10946000C3F83415D2F81C14C3F84015D2F82014F0
:10947000C3F84415D2F82414C3F84815D2F82814B8
:10948000C3F84C15D2F82C14C3F85015D2F8301488
:10949000C3F85415D2F83414C3F86015D2F8381450
:1094A000C3F86415D2F83C14C3F86815D2F8401418
:1094B000C3F86C15D2F84424C3F87025FFF730FFC9
:1094C00028B14D4B4D4A1B6803F04F031360FFF763
:1094D00027FF48B14FF08043D3F80024D10744BFA1
:1094E0006FF00102C3F80024454B1B68062B08D11E
:1094F000444B1B68062B01BF434A136843F4806347
:109500001360424AD2F8883043F47003C2F88830BE
:10951000BFF34F8FBFF36F8F4FF01023D3F80C22A0
:10952000D2071ED53A4B0122C3F80425D3F80024F4
:10953000002AFBD04FF01022D2F80C3223F00103A6
:10954000C2F80C32324B1A46D3F800140029FBD073
:109550000021C3F80415D2F80034002BFBD0FFF72C
:10956000CDFED3F80022002A03DBD3F80432002B0F
:1095700023DA274B0122C3F80425D3F80024002A5C
:10958000FBD04FF010221521C2F80012D3F80024AE
:10959000002AFBD04FF010231522C3F804221C4BE5
:1095A0001A46D3F800140029FBD00021C3F8041593
:1095B000D2F80034002BFBD0D1E7164B164A1A60C4
:1095C00008BD00BF240300104035014074C00740AF
:1095D0000DF0ADBA440200103C050040F0ED00E093
:1095E000A005004010560040E00F00F0E40F00F02E
:1095F000E80F00F000C0004058020010E40E0040E8
:1096000030010010340100103C17004000ED00E074
:1096100000E00140B89800200090D0030649074AB6
:10962000074B9B1A03DD043BC858D050FBDCFFF707
:10963000B1FEFCF705FE00003C2E0300A8980020B8
:1096400088A20020FEE7FEE7FEE7FEE7FEE7FEE772
:10965000FEE7FEE7FEE7FEE700F03CBD10B50B239A
:1096600050F8234051F82320944204D306D8013BFC
:10967000F6D2002010BD4FF0FF30FBE70120F9E7E4
:109680002DE9F043A1F1080CA0F10803083A2831B4
:109690000020FCE90245F2E9028914EB080645EBDB
:1096A0000907341847F10005E3E90245D2E90089CA
:1096B00048B94D4508BF444534BF012000208C45C2
:1096C000E7D1BDE8F083A94508BFA0452CBF012024
:1096D0000020F4E72DE9F043A1F1080CA0F1080304
:1096E000083A28310020F2E90289FCE90267B6EB6A
:1096F000080467EB0905B4EB000865F10009E3E92C
:10970000028948B94F4508BF464534BF01200020B3
:109710008C45E8D1BDE8F083B94508BFB0452CBF02
:1097200001200020F4E7000010B50446FFF7D2FF47
:1097300020B1034A21462046FFF7A2FF10BD00BF1B
:10974000F8280300814202D0902200F0A7BD7047A4
:1097500038B5002504462B4651F823002A4642EA34
:10976000400244F8232001330C2B4FEAD075F3D18B
:1097700006492046FFF772FF002800DA25B1034AA8
:1097800021462046FFF7A6FF38BD00BFF82803009A
:10979000031F2C3053F8042F1AB98342FAD1012049
:1097A000704700207047302200F012BE08B530220A
:1097B00000F044FDB0FA80F0400908BD70B51D46C8
:1097C0000446FFF75DFF294606462046FFF746FFA1
:1097D000002800DA26B12A4621462046FFF77AFF04
:1097E00070BD37B5054608460C460192FFF7D0FF1D
:1097F000019928B121462846FFF7D5FF03B030BDB7
:1098000022462846FFF766FFF8E72DE9F04F85B0BE
:1098100005460020884614460393029002F1300961
:10982000274651F8042B039B57F8046B03FB02FAFD
:109830000023E6FB0A231A468E4600239C46DEF8E8
:10984000003057F8046B12EB030B4CF1000C63462D
:109850005A46E6FB0A23CDE90023019B009E4EF801
:10986000046BB9454FF0000C1A46E6D1029FCA6A54
:109870004FF0000BBE184BF100070130F31847EB17
:109880000C060C280296CB62CAD108F1300621469C
:109890003046FFF7E3FE013006D131462846FFF798
:1098A00082FF05B0BDE8F08F224631462846FFF71B
:1098B00011FFF6E72DE9F04F002299B00023CDE922
:1098C0000023E8460E1D45460124D6F8009008EB1B
:1098D000840E8C464FF0000B5CF8043B1F460023BF
:1098E0005A469B46DEF8003012EB030A4BF1000BA0
:1098F0005B465246E7FB092366454EF8042B9B4620
:10990000EAD10134AB600C2C4FF00003EB6006F1A0
:10991000040605F10805D8D1169BDA0F1792159A9F
:109920005B0043EAD273169314AB73E802565A688D
:109930006C1946EB060544EAD2729845C3E9022544
:10994000F3D1DDE9002492186441CDE900240A1F17
:1099500000242C3152F8047F1E680025E7FB0745E0
:10996000A4191C605C6845F100052E194FF0000732
:1099700047F1000791425E603C4603F10803E9D1DC
:10998000044B054A1B686946FFF73FFF19B0BDE865
:10999000F08F00BFC8280300F82803002DE9F04F1E
:1099A000A2F1040899B0D1F800C06F462C324646A7
:1099B00000231C4656F8043F0025E3FB0C45964265
:1099C00047F8044B2B46F4D10C950DAF012351F809
:1099D0002390A7F1300EC4464FF0000B5CF8046FE3
:1099E0005C460025E6FB0945AB46DEF80050A24682
:1099F0001AEB050A4BF1000B94454EF804ABEDD180
:109A000001330C2B47F804BBE1D1044B044A1B681B
:109A10006946FFF7FAFE19B0BDE8F08FC8280300C9
:109A2000F8280300F0B501F16006C9B004463046DD
:109A30000D46FFF7ADFE294620B12046FFF782FE16
:109A400049B0F0BD05F130076846FFF733FF3946EE
:109A50000CA8FFF72FFF0CA918A8FFF72BFF2C4B22
:109A60000CAA294624A8FFF7A9FE24A90846FFF757
:109A700021FF24A96A460846FFF756FE24A918AA22
:109A80000846FFF751FE24A90846FFF761FE694624
:109A900030A8FFF75DFE30A91D4B6A460846FFF768
:109AA0008DFE04F1600530A93CA8FFF703FF3A469C
:109AB00031462846FFF772FF29462846FFF748FE41
:109AC00024AA3CA9204604F13005FFF72DFE24AA64
:109AD00021462046FFF728FE224624A92846FFF704
:109AE00023FE30AA29462846FFF758FF18A9084642
:109AF000FFF72EFE18A90846FFF72AFE18A9084608
:109B0000FFF726FE18AA29462846FFF70DFE97E71D
:109B1000F82803002DE9F04102F16008ADF5047D5D
:109B2000044640460D461646FFF732FE38B1294638
:109B30002046FFF707FE0DF5047DBDE8F08105F135
:109B400060073846FFF724FE08B13146F0E7394692
:109B50006846FFF7AFFE41460CA8FFF7ABFE0CAA24
:109B6000294618A8FFF71AFF6A46314624A8FFF7CE
:109B700015FF424605F1300130A8FFF70FFF30A96D
:109B800008460CAAFFF70AFF3A4606F130013CA846
:109B9000FFF704FF3CA908466A46FFF7FFFE24A929
:109BA00018A8FFF703FE48B13CA930A8FFF7FEFD57
:109BB00020B129462046FFF735FFBCE718AA24A9A3
:109BC00048A8FFF7B1FD48A954A8FFF7C1FD54A963
:109BD0000846FFF76FFE54AA48A960A8FFF7DEFE0B
:109BE00030AA3CA96CA8FFF79FFD6CA90846FFF7B7
:109BF000AFFD54AA18A978A8FFF7D0FE6CA920469B
:109C0000FFF758FE60AA21462046FFF78DFD78AA8F
:109C10002146204604F13005FFF786FD78AA21464B
:109C20002046FFF781FD224678A92846FFF77CFDF4
:109C30006CAA29462846FFF7B1FE30A960AA08465B
:109C4000FFF7ACFE30A908466034FFF781FD30AA6B
:109C500029462846FFF768FD0C4B42463946204608
:109C6000FFF7ACFD21462046FFF724FE6A46214659
:109C70002046FFF759FD0CAA21462046FFF754FD68
:109C800048AA21462046FFF789FE54E7F82803003A
:109C90002DE9F04100F16007B0B0054638460C46AA
:109CA000FFF776FD04F1600680463046FFF770FD51
:109CB000B8F1000F01D118B1002030B0BDE8F0813B
:109CC00039466846FFF7F6FD31460CA8FFF7F2FD6E
:109CD0000CAA294618A8FFF761FE6A46214624A867
:109CE000FFF75CFE3A4669466846FFF757FE0CA947
:109CF00008463246FFF752FE0CA9084605F130022D
:109D0000FFF74CFE6946684604F13002FFF746FE55
:109D100024A918A8FFF74AFD0028CDD00CA9684651
:109D2000FFF744FDC9E708B5FFF7B2FF08BD000023
:109D3000084B1A68D20730B50BD4074D074C0122E7
:109D40001A600FCD0FC40FCD0FC495E80F0084E843
:109D50000F0030BDF8AE00202829030000AF00201E
:109D6000F0B5A5B0234A244906466846FFF7B2FC81
:109D700000240BAA0B231068214641EA5001013B45
:109D800042F804194FEAC074F5D21C4918A8FFF72D
:109D90000AFD002740F27F1424AB03EBE40304F038
:109DA000070213F8903C134113F0010505D018A9E0
:109DB00032460846FFF7F2FD2F46013C11D20CA8AF
:109DC00018A9FFF7F0FC0CA8FFF7E2FC80B90C49DA
:109DD0000CA8FFF7EBFC002818BF0124204625B093
:109DE000F0BD002FD8D018A90846FFF763FDD3E7D0
:109DF0000024F3E758280300F828030000AF0020F0
:109E000028290300F0B599B00D46044668461F4660
:109E10001646FFF74FFD2A4669466846FFF7BEFD26
:109E2000194B1A4A69466846FFF7C8FCD7B9294654
:109E3000204604F13005FFF7B6FC6946284600F0DD
:109E40007BF9114A29460CA8FFF7CBFC0CA9284640
:109E5000FFF704FC431E58425841B04209D129463D
:109E60000CA808E06846FFF77BFF0130DFD1002037
:109E700007E00CA92846FFF796FC002384F8603021
:109E8000012019B0F0BD00BFF82803009828030096
:109E90002DE9F04F10228DB004460DEB020000F0CA
:109EA00097FA1022002108A800F0FEFADDE90A2C3A
:109EB000651EC4F1010E0EEB050004A9002351F844
:109EC000046B002E3BD10133042BF8D1C4F884007D
:109ED0000DB0BDE8F08F0BB279B38DF82010DDE93D
:109EE0000801BAEB00067BEB01078B4508BF8245F2
:109EF00034BF4FF0010A4FF0000AB8EB02010091A5
:109F000069EB0C010191DDE90001CDE90467B0EBDB
:109F10000A0061F10001CDE9060105F8013F07A93A
:109F2000042300260F68304640EA5700013B41F801
:109F300004094FEAC776F5D1BDE70B460FE09DF85F
:109F4000101011F00103E8D001F01F011029DDE924
:109F500004ABDDE90689BED9A1F120031BB2594249
:109F60008DF82010DDE9080110EB0A0651EB0B0714
:109F70002CBF4FF0010A4FF0000A12EB08010291CA
:109F80004CEB09010391DDE9020110EB0A00CDE978
:109F9000046741F10001BEE72DE9F04FDFF82C9195
:109FA000ADF2446D04460F46394604A800F0AEF801
:109FB00001210DF10F00B8479DF80F2001231A4031
:109FC00004A910A8FFF71EFF06460028ECD09DF854
:109FD000A030002B40D0494670A8FFF7B3FB70A912
:109FE0004CA8FFF71FFD70AD4FF0010829469035D2
:109FF0004CAA284608F10108FFF78CFDB8F1080FBC
:10A00000F4D10DF1A8082F49DFF8C4B04046FFF79E
:10A010003FFF49462046FFF795FBD8F884500023C0
:10A02000013D4FF0900A6A1C40D02BB121462046DA
:10A030000093FFF7F7FC009B18F90520002A09D0D0
:10A0400017DD521070AB0AFB023221462046FFF7A3
:10A0500061FD3346013DE6E710A970A8FFF7A3FBB9
:10A060001CA97CA8FFF79FFB174988A8FFF79BFB5B
:10A07000B5E7524252100AFB02F270AB1344194684
:10A080004CA801920093FFF78EFB019A70AB02F18E
:10A09000300119445A4658A8FFF7A3FB009B64A857
:10A0A00003F16001FFF77FFB4CAACEE704F16000EB
:10A0B000FFF76EFB00287FF477AF0DF2446DBDE82B
:10A0C000F08F00BF8828030028280300982703008A
:10A0D000F828030008B5FFF75FFF08BD084B1A68B2
:10A0E000D20730B50BD4074D074C01221A600FCDB3
:10A0F0000FC40FCD0FC495E80F0084E80F0030BDEA
:10A10000F8AE00202829030000AF002070B5094EEA
:10A1100004460D4630212046A84794F82F3003F01E
:10A120001F0384F82F3031462046FFF797FA0028A6
:10A13000F0DA70BD582903002DE9F0438DB00646D2
:10A140000F4630221549DFF85890684600F040F974
:10A1500040F27F154FF00008EB1005F0070219F8E8
:10A160000330134113F0010405D03A4669466846AE
:10A17000FFF714FCA046013D07D230226946304665
:10A1800000F026F90DB0BDE8F083B8F1000FE3D080
:10A1900069466846FFF78EFBDEE700BF282803000C
:10A1A00088290300084B1A68D20730B50BD4074D35
:10A1B000074C01221A600FCD0FC40FCD0FC495E8D4
:10A1C0000F0084E80F0030BDF8AE002028290300FE
:10A1D00000AF002008B50021044602F025FA044B28
:10A1E0001868C36B03B19847204605F03BFB00BFDE
:10A1F000BC2A030070B50D4E0D4D761BB61006D06F
:10A20000002455F8043B01349847A642F9D1094E81
:10A21000094D761B07F0EEF8B61006D0002455F86D
:10A22000043B01349847A642F9D170BD68A20020D2
:10A2300068A2002080A2002068A20020032A70B437
:10A2400012D940EA0105AD0704460B461ED1194656
:10A25000204653F8045B54F8046BAE4216D1043A1E
:10A26000032A20461946F2D8561EA2B10139441ECF
:10A2700001E0C3180CD014F8015F11F8012F9542CA
:10A28000A6EB0403F5D0A81A70BC7047561EEDE784
:10A29000184670BC70471046F6E700BF844641EA96
:10A2A000000313F003036DD1403A41D351F8043B4E
:10A2B00040F8043B51F8043B40F8043B51F8043BA0
:10A2C00040F8043B51F8043B40F8043B51F8043B90
:10A2D00040F8043B51F8043B40F8043B51F8043B80
:10A2E00040F8043B51F8043B40F8043B51F8043B70
:10A2F00040F8043B51F8043B40F8043B51F8043B60
:10A3000040F8043B51F8043B40F8043B51F8043B4F
:10A3100040F8043B51F8043B40F8043B51F8043B3F
:10A3200040F8043B51F8043B40F8043B403ABDD2AE
:10A33000303211D351F8043B40F8043B51F8043B50
:10A3400040F8043B51F8043B40F8043B51F8043B0F
:10A3500040F8043B103AEDD20C3205D351F8043BDF
:10A3600040F8043B043AF9D2043208D0D2071CBFAB
:10A3700011F8013B00F8013B01D30B8803806046D4
:10A38000704700BF082A13D38B078DD010F003034A
:10A390008AD0C3F10403D21ADB071CBF11F8013BBA
:10A3A00000F8013B80D331F8023B20F8023B7BE709
:10A3B000043AD9D3013A11F8013B00F8013BF9D234
:10A3C0000B7803704B7843708B78837060467047CE
:10A3D0008842F0B40DD98B1883420AD9841832B15F
:10A3E000224613F8014D02F8014D9942F9D1F0BC13
:10A3F00070470F2A0ED80346541E002AF7D00134A6
:10A400000C44013B11F8012B03F8012FA142F9D1B3
:10A41000F0BC704740EA01039B073FD1A2F1100353
:10A4200023F00F0401F1200727441B0901F1100458
:10A4300000F1100554F8106C45F8106C54F80C6CD1
:10A4400045F80C6C54F8086C45F8086C54F8046C2A
:10A4500045F8046C1034BC4205F11005EAD1013313
:10A4600012F00C0F01EB031102F00F0400EB0313C9
:10A4700017D0043C24F0030CA5089C441C1F0E4676
:10A4800056F8047B44F8047F6445F9D16C1C03EB57
:10A49000840301EB840102F00302ADE7541E03467E
:10A4A000ADE72246A8E700BFF0B4860746D0541EA9
:10A4B000002A3CD0CAB2034601E0013C37D303F87E
:10A4C000012B9D07F9D1032C2AD9CDB245EA0525E8
:10A4D0000F2C45EA054534D9A4F1100222F00F0CE7
:10A4E00003F120071609674403F1100242E90455FD
:10A4F00042E902551032BA42F8D1721C14F00C0F26
:10A5000003EB021204F00F0613D0331F23F00303F2
:10A510000433134442F8045B9342FBD106F0030476
:10A520002CB1CAB21C4403F8012B9C42FBD1F0BCF5
:10A53000704734461346002CF3D1F8E7144603461F
:10A54000C1E71A462646E0E70FB400B5074983B0D5
:10A5500004AB086853F8042B8168019300F0C0F93C
:10A5600003B05DF804EB04B0704700BFBC98002056
:10A5700000290CBF022200224FF4806300F000B8D3
:10A580002DE9F043654CD4F8009083B004460F46A3
:10A5900090461E46B9F1000F03D0D9F83830002B91
:10A5A00079D0B8F1020F06D0B8F1010F00F2A48003
:10A5B000002EC0F2A180636ED90752D521464846CD
:10A5C00003F03CF9216B41B104F14003994202D000
:10A5D000484603F02BFA00232363B4F90C50002300
:10A5E000A36163602B0665D425F44A6525F0030555
:10A5F000B8F1020FA58164D001AB6A4621464846F6
:10A6000003F048FBA3891843A081002E30D0002F0F
:10A610002FD0D9F83830002B39D0009B2760B342B7
:10A62000B4F90C301CBF43F40063A381B8F1010FEF
:10A6300004BF43F00103A3819AB213F00803C4E9F5
:10A6400004762CD0D10755D57642A661666E0021DE
:10A6500016F00106A16027D00026304603B0BDE801
:10A66000F083A3899A05A9D4A06D03F00FFBA5E799
:10A67000009E304603F088FB074600283FD0A389A0
:10A6800043F08003A381D9F83830002BC5D1484668
:10A6900003F030F9C1E7484603F02CF981E7A360E5
:10A6A000666E16F00106D7D193051CD5304603B06F
:10A6B000BDE8F0832169484603F0B8F9B4F90C50BD
:10A6C00092E70026626E002104F1430345F0020583
:10A6D000A160D7074FF00101C4E90431A5812360CF
:10A6E000E4D4A805E2D4A06D03F0D2FA304603B05A
:10A6F000BDE8F083A660D3E74FF0FF36D6E7009DB4
:10A70000B54204D0284603F03FFB074620B9B4F910
:10A710000C504FF0FF36D5E72E46B0E7BC9800202E
:10A7200080EA0102844612F0030F4FD111F0030FAB
:10A7300032D14DF8044D11F0040F51F8043B0BD009
:10A74000A3F101329A4312F0803F04BF4CF8043B5E
:10A7500051F8043B16D100BF51F8044BA3F101326C
:10A760009A4312F0803FA4F101320BD14CF8043B24
:10A77000A24312F0803F04BF51F8043B4CF8044B55
:10A78000EAD023460CF8013B13F0FF0F4FEA3323C6
:10A79000F8D15DF8044B704711F0010F06D011F8A5
:10A7A000012B0CF8012B002A08BF704711F0020F93
:10A7B000BFD031F8022B12F0FF0F16BF2CF8022B7E
:10A7C0008CF8002012F47F4FB3D1704711F8012BA1
:10A7D0000CF8012B002AF9D1704700BF00000000DF
:10A7E0000000000000000000000000000000000069
:10A7F0000000000000000000000000000000000059
:10A8000090F800F06DE9024520F007016FF0000CB0
:10A8100010F0070491F820F040F049804FF0000458
:10A820006FF00700D1E9002391F840F000F1080033
:10A8300082FA4CF2A4FA8CF283FA4CF3A2FA8CF36B
:10A840004BBBD1E9022382FA4CF200F10800A4FAD2
:10A850008CF283FA4CF3A2FA8CF3E3B9D1E9042326
:10A8600082FA4CF200F10800A4FA8CF283FA4CF35D
:10A87000A2FA8CF37BB9D1E9062301F1200182FA17
:10A880004CF200F10800A4FA8CF283FA4CF3A2FA1D
:10A890008CF3002BC6D0002A04BF04301A4612BA2B
:10A8A000B2FA82F2FDE8024500EBD2007047D1E92E
:10A8B000002304F00305C4F100004FEAC50514F0BD
:10A8C000040F91F840F00CFA05F562EA05021CBF8E
:10A8D00063EA050362464FF00004A9E700000000A8
:10A8E0002DE9F04F2DED068BCFB01C468B46174659
:10A8F000814603F0C3F90368089418461193FFF7E3
:10A900007FFF1090B9F1000F04D0D9F83830002B38
:10A9100000F00A82DBF86430BBF90C2013F0010F61
:10A9200093B202D1910540F1D5869E040AD4DBF89A
:10A93000641042F4005321F40051ABF80C30CBF812
:10A9400064109BB21D0740F1CA80DBF81020002A7A
:10A9500000F0C58003F01A020A2A00F0CE8000231E
:10A960009FED837BCDE92333CDE91333CDE9153357
:10A970000C931293049325AB229398463B788DED6C
:10A980000E7B09EE10BA002B00F078813C4604E003
:10A9900014F8013F002B00F0C980252BF8D1E51BEE
:10A9A00040F0C7802378002B00F0688100230593D6
:10A9B0008DF86B300293661C4FF0FF33647803937D
:10A9C0002B254FF0200A0136A4F120035A2B00F268
:10A9D000D380DFE813F07802D100D1007202D100F9
:10A9E000D100D1006A00D100D10010022102D100B3
:10A9F0001B025802D10052025B005B005B005B004F
:10AA00005B005B005B005B005B00D100D100D1000C
:10AA1000D100D100D100D1005D01D100B30190027D
:10AA20005D015D015D01D100D100D100D1008A023C
:10AA3000D100D100E902D100D100D100C101D10083
:10AA40002502D100D1002108D100D100D100D100D0
:10AA5000D100D100D100D1005D01D100B301E701E7
:10AA60005D015D015D01FE02E701AD01D1008102E2
:10AA7000D1001B0317080703AD01D100C1018200FB
:10AA80001308D100D100F207D1008200A4F13003F5
:10AA9000002216F8014B02EB820203EB4202A4F102
:10AAA0003003092BF5D905928EE7484603F0E6F806
:10AAB000436815931846FFF7A3FE034648461C4615
:10AAC000169303F0DBF88268139234B1139B23B121
:10AAD000139B1B78002B41F0D980347873E75946DB
:10AAE000484601F02FFD002841F07483BBF80C307C
:10AAF00003F01A020A2A7FF432AFBBF90E20002AB3
:10AB0000FFF62DAFDBF86420D20702D49E0541F199
:10AB1000918123463A465946484601F0D1FC0490BB
:10AB200004984FB0BDEC068BBDE8F08FE51B00F03C
:10AB3000A580DDE9233201332A44072BCDE92332F6
:10AB4000C8F80070C8F8045006DC08F10808049A38
:10AB500023782A44049226E719EE101A22AA4846BE
:10AB600004F074F8002841F04D840DF19408EEE7EC
:10AB700000000000000000000996002C7ED0002399
:10AB80001A464FF0010A8DF8D4408DF86B300792C9
:10AB900003920A920D920B92CDF818A035AF029B4A
:10ABA000029913F0020318BF0AF1020A11F0840B94
:10ABB00005D10599A1EB0A06002E00F3D483249D4C
:10ABC00072B1239A013201350DF16B000121072A80
:10ABD000CDE92325C8E9000100F3058408F1080840
:10ABE0006BB1239B013302351BA90222072BCDE950
:10ABF0002335C8E9001200F3068408F10808BBF108
:10AC0000800F00F09682039B069A9E1A002E00F396
:10AC1000D882029BDE0500F13082239B069AC8F899
:10AC2000007001331544072B2495C8F804202393A2
:10AC300000F32D8308F10808029B5C0705D5059BEE
:10AC4000A3EB0A04002C00F3EC83DDE90432524547
:10AC5000ACBF9B1853440493002D40F0EF820023B7
:10AC60002393079B1BB10799484602F0DFFE0DF1C5
:10AC70009408099F3B78002B7FF488AE249B19EE43
:10AC800010BA002B40F0F8870023239300F08FBC0C
:10AC9000089B0996073323F00703B3EC027B8DED85
:10ACA0000E7BDDE90E56089326F000430AEE903A3B
:10ACB0000AEE105A5BEC1AABB84B504659464FF0AF
:10ACC000FF3205F027FA002840F05285B34B4FF0D1
:10ACD000FF325046594605F0FFF9002840F04885FC
:10ACE000002200232846314605F0ECF9002841F007
:10ACF0009A819DF86B20AA4FAA4B029800214FF031
:10AD0000030A20F0800007910290472CC8BF1F461D
:10AD1000CDF818A003910A910D910B91002A3FF4F0
:10AD20003EAF0AF1010A3AE7484602F0E3FDF1E5D9
:10AD3000029B347843F02003029344E6089B099673
:10AD400053F8042B8DF8D42000210A464FF0010A55
:10AD500008938DF86B101AE7089D099655F8047B47
:10AD600000268DF86B60002F00F08486039A13464E
:10AD7000013300F02E873146384603F0C9FA0790B8
:10AD8000002801F0E281079B0396DA1B0692334606
:10AD900022EAE27A08959DF86B2007930A930D93B7
:10ADA0000B93BBE7029B09969D0640F1AD80089B83
:10ADB000073323F007031946F1E80223089192466E
:10ADC0009B46002A73F10003C0F2AF80039B01335E
:10ADD00000F0AD85029B23F080055AEA0B0340F09A
:10ADE000B182039B002B40F0B482029500230393B1
:10ADF00006934EAFC3E0089B53F8042B0592002A3C
:10AE000080F27184059A089352420592029B34782D
:10AE100043F004030293D6E534788DF86B50D2E505
:10AE2000029B099643F01005AF0640F12984089B68
:10AE3000073323F00703F3E802AB08930123002252
:10AE40008DF86B20039A114601317DD025F08001E9
:10AE500002915AEA0B0140F07182002A40F0868686
:10AE6000002BC3D115F00103069300F06B8430234F
:10AE70008DF837310DF2371781E0029B347843F0BB
:10AE8000800302939FE5324612F8014B2A2C01F011
:10AE9000F182A4F13003092B164698BF002201F27B
:10AEA000928116F8014B02EB820203EB4202A4F1FD
:10AEB0003003092BF5D9039286E5029B347843F0E1
:10AEC000010302937FE59DF86B30002B7FF405AE04
:10AED00034788DF86BA076E53478029B6C2C00F00A
:10AEE000C28543F0100302936DE5029B347843F072
:10AEF0000803029367E5029B099643F0100302934F
:10AF0000029B9D063FF553AF029BD80640F1F684A5
:10AF1000089B53F8042B08934FEAE27B5B46002A18
:10AF200073F100039246BFF651AF039A029DDAF126
:10AF3000000A11464FF02D036BEB4B0B01318DF8DE
:10AF40006B304FF0010381D1012B00F0FB81022B0C
:10AF50004EAF73D112984FEA1A130AF00F0143EA69
:10AF60000B734FEA1B129A469346435C07F8013D68
:10AF70005AEA0B03EFD14EABDB1B0295069300237D
:10AF8000039907930A930D930B93069B9DF86B20EF
:10AF90008B42B8BF0B469A46C0E600BFFFFFEF7F6B
:10AFA000C02A0300C42A0300029B099643F0100341
:10AFB0000293029B990640F17783089B073323F0A5
:10AFC0000703F3E802AB0893029B23F48065002398
:10AFD00035E73478029B682C00F03E8543F040034F
:10AFE0000293F0E4089B099647F6300153F8042BCE
:10AFF000ADF86C1002990893CD4B129341F0020505
:10B0000092464FF0000B0223782418E7029B099622
:10B010009E0600F1A183029BDD0600F1AD85029B37
:10B020005C0600F14986029B980540F1A585089BC6
:10B03000049953F8042B089311701AE64FEADA02C8
:10B0400042EA4B724FEADB010AF007038B46924655
:10B0500030335AEA0B013A4607F8013DEED1E907D1
:10B0600089D5302B87D03023023A07F8013C4EAB0C
:10B070009B1A02950693174681E7652C40F31381CE
:10B08000DDE90E010022002305F012F8002800F08F
:10B090000482239BA74AC8F800200133013501220E
:10B0A000072BCDE92335C8F8042000F3418508F1CA
:10B0B00008081C9B0C9A934280F20783239B119AE9
:10B0C000C8F80020109AC8F8042001331544072B53
:10B0D0002495239300F3B28408F108080C9B5C1EAE
:10B0E000002C7FF7A9AD102C239BDFF84CB240F366
:10B0F00030855F46102619EE10BA05E008F1080801
:10B10000103C102C40F3248501331035072BCDE97A
:10B110002335C8E90076F1DD22AA5946484603F0F6
:10B1200095FD002840F03E82DDE923350DF19408BD
:10B13000E6E7059BA3EB0A06002E7FF764AD102E11
:10B14000239ADFF8F4B129DD58462946A34619EEC3
:10B15000105A1023044604E0103E102E08F108088F
:10B1600018DD01321031072ACDE92321C8E9004357
:10B17000F2DD22AA2946484603F068FD002840F087
:10B180001082103E102EDDE923210DF194084FF0BE
:10B190001003E6DC23460D465C469B4601323544EF
:10B1A000072ACDE92325C8F800B0C8F8046000F3E9
:10B1B0003784039B069A9E1A002E08F108087FF731
:10B1C00028AD102E239ADFF870B129DD58462946A4
:10B1D000A34619EE105A1023044604E0103E102E28
:10B1E00008F1080818DD01321031072ACDE92321C2
:10B1F000C8E90043F2DD22AA2946484603F026FDAD
:10B20000002840F0CE81103E102EDDE923210DF103
:10B2100094084FF01003E6DC23460D465C469B463F
:10B2200001323544072ACDE92325C8F800B0C8F813
:10B23000046000F3178208F10808EAE419EE101A16
:10B2400022AA484603F002FD00283FF408AD19EE9B
:10B2500010BAA7E1239B1199C8F800101099C8F8FB
:10B26000041001330D44072B2495239300F3D2855A
:10B2700008F10808002AC0F2C7870C9A0133154468
:10B28000072BCDE92335C8E900727FF7D3AC19EE5F
:10B29000101A22AA484603F0D9FC0028D7D1249DD1
:10B2A0000DF19408C8E40C9B239C012B40F3928180
:10B2B000013401350123072CCDE92345C8F800707E
:10B2C000C8F8043000F3F18308F10808109B119AC4
:10B2D00001341D44072CCDE92345C8E9002300F3C0
:10B2E000F28308F108080023DDE90E01002204F0D2
:10B2F000DFFE0C9B002840F08B81013B01340137BD
:10B300001D44072CCDE92345C8F80070C8F8043067
:10B3100000F3708108F10808149A013415441EAB3B
:10B32000072CCDE92345C8E900327FF783ACAEE7AF
:10B33000D02A0300002B0300142B0300012B029DD5
:10B340007FF405AEBBF1000F08BFBAF10A0F80F021
:10B35000F6820AF1300A01238DF837A1029506938F
:10B360000DF237170BE6102EDDE9232129DD1793A7
:10B37000102543460846B846274619EE104A04E011
:10B38000103E102E03F1080316DD0132C4491030BF
:10B39000072ACDE92320C3E90015F1DD22AA2146C1
:10B3A000484603F053FC002840F0B483103E102EB2
:10B3B000DDE9232025ABE8DC3C4647469846179B51
:10B3C00001460132B648C8F800007518072ACDE9D1
:10B3D0002325C8F8046000F38B839DF86B2008F1E7
:10B3E0000808FFF7EDBB19EE101A22AA484617937A
:10B3F00003F02CFC00287FF42AAF249D179B0DF14D
:10B400009408FFF7EDBB19EE101A22AA484603F084
:10B410001DFC00287FF41BAF249D0DF19408FFF75D
:10B42000EEBB102C239B20DD19EE107A102604E0D1
:10B43000103C102C08F1080817DD0133984A10352C
:10B44000072BCDE92335C8E90026F1DD22AA3946CC
:10B45000484603F0FBFB002840F07883103C102C9A
:10B46000DDE923350DF19408E7DC01338C4AC8F897
:10B4700000202544072BCDE92335C8F804407FF789
:10B48000E4AB19EE101A22AA484603F0DFFB0028AD
:10B490007FF4DDAE249DFFF7D8BB1C9A002A40F351
:10B4A0002681DDE90B329342A8BF1346002B1C46D0
:10B4B0000DDD239BC8F8007001332544072B24952C
:10B4C000C8F80440239300F3D98508F108080B9BC2
:10B4D000002CA8BF1B1B002B1C4600F355830B9BA5
:10B4E0003B449B46029B590500F104851C9B0C9A2A
:10B4F000934203DB029AD20740F1CF83239A11993A
:10B50000C8F800101099C8F8041001320D44072A39
:10B510002495239200F3E98508F108080C9ABC18D9
:10B52000A4EB0B04D31A9C42A8BF1C46002C0DDDD3
:10B53000239AC8F800B001322544072A2495C8F898
:10B540000440239200F32E8608F10808002CACBFBB
:10B550001C1B1C46002C7FF76FAB102C239BDFF8C5
:10B5600044B140F3F6825F46102619EE10BA05E0AA
:10B5700008F10808103C102C40F3EA820133103522
:10B58000072BCDE92335C8E90076F1DD22AA59461B
:10B59000484603F05BFB28B9DDE923350DF194083B
:10B5A000E8E7AB46079911B1484602F03FFADBF8ED
:10B5B000643013F0010FBBF80C3002D1980540F154
:10B5C0009082590600F1128604984FB0BDEC068BAC
:10B5D000BDE8F08F029BDE073FF56AAE013401350E
:10B5E0000123072CCDE92345C8F80070C8F80430C2
:10B5F0007FF790AE19EE101A22AA484603F026FBF8
:10B6000000287FF424AEDDE923450DF1940883E69C
:10B610005E1E002E7FF780AE102EDFF888B040F35C
:10B62000E382CDF80CA0102719EE10AA05E008F16E
:10B630000808103E102E40F3D58201341035072C37
:10B64000CDE92345C8E900B7F1DD22AA51464846B5
:10B6500003F0FCFA002840F0BA85DDE923450DF13E
:10B660009408E6E719EE101A22AA484603F0EEFA0B
:10B6700000287FF4ECAD249D0DF19408FFF7C9BAC2
:10B68000089AEE0652F8041B08924FF001035ED4AC
:10B69000680659D51FFA81FA4FF0000BFFF7CFBBB0
:10B6A000042B0300142B0300029BDA0600F1368101
:10B6B000029B5B0640F1B082089B53F8042B089371
:10B6C0001FFA82FA4FF0000B7EE4029BD8077FF549
:10B6D000B3AAF3E4DBF8580002F0D8FABBF90C2067
:10B6E00093B2FFF722B934780893FFF76CB9239B24
:10B6F000C649C8F80010013301350121072BCDE9F7
:10B700002335C8F8041000F39B8408F10808002AC8
:10B710007FF4A0AD029B0C9A03F0010313433FF4A6
:10B720008BAA239B119AC8F80020109AC8F804200D
:10B7300001331544072B2495239300F36B8308F101
:10B7400008089AE54EAF1AE4AA0500F1AF828A46CE
:10B750004FF0000BFFF773BB089B53F8041B0893D3
:10B76000049BDD171A462B46C1E90023FFF781BA77
:10B77000DDE90E0102460B4604F0CCFC054600282C
:10B7800040F03086612C00F0A485412C00F0A282AC
:10B79000039B24F020065A1C069600F0C085472E15
:10B7A00000F09C85DDE90E01029A002942F48072C6
:10B7B0000A924FF00003C0F2E58541EC180B179395
:10B7C0000793462E00F0A084452E40F07184B0EE21
:10B7D000480AF0EE680A039B20A95D1C1DABCDE969
:10B7E00000312A461CAB0221484601F019F80746F1
:10B7F00005440A9BDDF808B0029351EC180B0022B7
:10B80000002304F055FC002800F056832B46DB1B78
:10B810000C93069B472B00F02183069B462B00F0E0
:10B82000A1841C9B0B930B9B069A013B412A1C9302
:10B8300000F0A285E2B20021002BB8BF0B9B8DF86F
:10B840007820BABFC3F101032D222B22092B8DF8DA
:10B85000792040F382850DF1870EDFF8B8C1754677
:10B860008CFB0321DA17C2EBA10202EB8201A3EBEE
:10B8700041011E463031632E284605F8011C13464F
:10B8800005F1FF35ECDC3033DAB2831E9E452946E4
:10B8900005F8012C40F2F9850DF17A0301E011F869
:10B8A000012B03F8012B8E45F9D10DF189030DF120
:10B8B0007A021B1A13441EAA9B1A14930C9B149A07
:10B8C000012B1A44069240F3AF85069B109A13444D
:10B8D000069300232BF480660A930D930B93069B2B
:10B8E00046F48072029223EAE37A179B002B40F021
:10B8F000DC829DF86B200393FFF710BA029B590678
:10B9000040F19981089B53F8042B08930FFA82FAAF
:10B910004FEAEA7B52465B46FFF753BA089B53F85F
:10B92000042B089392464FF0000BFFF74DBBBBF181
:10B93000000F08BFBAF10A0F029DFFF40AAD05F42B
:10B94000806600230295CDF81880139DA0464EAF67
:10B9500034461E4609E004F01BFCBBF1000F08BF93
:10B96000BAF10A0F1FD382468B460A2200235046A3
:10B97000594604F00DFC94460CF1300C07F801CC4C
:10B98000504659460A2200230136013F002CE2D0DE
:10B9900095F800C06645DED1FF2EDCD09B4508BF80
:10B9A000924580F095824EABDB1B44461395DDF843
:10B9B00018800C960693FFF7E2BA154B099612937E
:10B9C000029B9F0666D5089B073323F00703F3E825
:10B9D00002AB0893029AD0070AD55AEA0B0307D0A4
:10B9E000302342F002028DF86D4002928DF86C30E7
:10B9F000029B23F480650223FFF721BA029D09967A
:10BA0000FFF712BA0996FFF7D4BA00BF002B030064
:10BA1000D02A030067666666AB4B09961293CFE7A0
:10BA200019EE101A22AA484603F010F900287FF4F4
:10BA30000EAC249D0DF19408FFF7E5B819EE101A2D
:10BA400022AA484603F002F900287FF400AC249DA6
:10BA50000DF19408FFF742BB43F40073747802932E
:10BA60000136FEF7B0BF43F020037478029301362D
:10BA7000FEF7A9BF039B0A97062B28BF062303974F
:10BA80000D970B9707973A469A46904F089506935D
:10BA9000FFF744B9029BDE063ED5089B53F8042B02
:10BAA000089392464FF0000B94E719EE101A22AA61
:10BAB000484603F0CBF800287FF4C9ABDDE9234505
:10BAC0000DF1940802E419EE101A22AA484603F078
:10BAD000BDF800287FF4BBABDDE923450DF19408E8
